:100000000C9498000C94C0000C94C0000C94C00098
:100010000C94C0000C94C0000C94C0000C94C00060
:100020000C94C0000C94C0000C94C0000C94C00050
:100030000C94C0000C94C0000C94C0000C94C00040
:100040000C94DF060C94C0000C94E9090C941B0A74
:100050000C94C0000C9419060C94C0000C94C000C1
:100060000C94C0000C94C0000C94C0000C94C00010
:100070000C94780A0C94AA0A0C94C0000C94C0004A
:100080000C94C0000C94C0000C94C0000C94C000F0
:100090000C94C0000C94C0000C94C0000C94C000E0
:1000A0000C94C0000C94C0000C94C0000C94C000D0
:1000B0000C94C0000A0D0E0900030200000405089C
:1000C000000000000000000000000000000000012F
:1000D00002040810204080010204081020010204DC
:1000E00008102040804001020408040404040404B1
:1000F00004040202020202020303030303030202D6
:100100000305050505000000002300260029002C3A
:100110000000000000250028002B002E0000000039
:1001200000240027002A002D000058024B0ADA0A9A
:1001300011241FBECFEFD8E0DEBFCDBF11E0A0E09D
:10014000B1E0ECE1FBE102C005900D92AA3DB107E0
:10015000D9F725E0AAEDB1E001C01D92A035B207A4
:10016000E1F710E0C8E9D0E004C02197FE010E9449
:10017000610CC539D107C9F70E942E0C0C948C0D67
:100180000C94000069E171E082E194E00E94560B5A
:1001900061E0809106010C9456086DE271E082E105
:1001A00094E00E94560B60E0809106010C94560882
:1001B000FC018081823031F0833031F0813089F46C
:1001C0000C94C2000C94CD006FE371E082E194E0E6
:1001D0000E94560B40E050E0BA018BED91E00C9488
:1001E00048066AE471E082E194E00C94560BCF93E8
:1001F000DF93EC016FE571E082E194E00E94430B34
:100200006B817C814AE050E082E194E00E94270CFF
:1002100065E671E082E194E00E94430B6D817E818E
:100220004AE050E082E194E00E94270C6CE671E025
:1002300082E194E00E94430B6F8178854AE050E0B0
:1002400082E194E00E94270C63E771E082E194E090
:100250000E94430B69857A854AE050E082E194E090
:100260000E94270C6AE771E082E194E00E94430B50
:100270006B857C854AE050E082E194E00E94270C87
:1002800062E871E082E194E00E94430B69817A8127
:100290004AE050E082E194E00E94270C6CE871E0B3
:1002A00082E194E00E94430B6D857E854AE050E038
:1002B00082E194E00E94270C69ED71E082E194E014
:1002C000DF91CF910C94560BCF93DF9326E040E85B
:1002D00055E260E070E082E194E00E948D0926E042
:1002E00040E855E260E070E08FEA94E00E948D09FA
:1002F00061E08DE00E941A086FEA74E081EF91E0FE
:100300000E94D502CCE0D1E061E088810E941A0809
:1003100061E0809106010E941A080E94C20060E01C
:10032000809108010E941A0861E088810E945608A5
:1003300040E050E0BA0186EE91E00E94480640E0BD
:1003400050E0BA018BED91E0DF91CF910C9448061B
:100350008091DA0161E0811101C060E08DE00E94CE
:1003600056088091DA0191E089278093DA01089597
:100370000F931F93CF93DF93CDB7DEB7A3970FB63D
:10038000F894DEBF0FBECDBF19A218A281E0898309
:1003900081EF91E00E944704882351F08091F5029B
:1003A0008AA38091F6028BA3CE0182960E94D80088
:1003B00048EE53E060E070E08BED91E00E94A4060F
:1003C000882361F08BED91E00E946506882331F06F
:1003D0000E94C2008BED91E00E94930644E650E03B
:1003E00060E070E086EE91E00E94A406882309F4A4
:1003F00054C0FE0132968EE0DF011D928A95E9F726
:10040000809116010E94AF079D838C838091140117
:100410000E94AF079F838E83809112010E94AF07D5
:1004200099878887809110010E94AF079B878A87F0
:1004300080910E010E94AF079D878C8780910A01F1
:100440000E94AF079B838A83809108010E948408E1
:100450009F878E87BE016F5F7F4FE7EFF1E0CE0190
:1004600080968B01DB012D91BD012193A817B9075F
:10047000C9F78FE190E099A388A381EF91E00E94F2
:100480002003C8010E94F70040E050E0BA0186EE68
:1004900091E00E9448060E94A801A3960FB6F89426
:1004A000DEBF0FBECDBFDF91CF911F910F91089599
:1004B00080911601909117019093FE038093FD03A4
:1004C0008091140190911501909300048093FF0393
:1004D0008091120190911301909302048093010482
:1004E00080910E0190910F01909304048093030476
:1004F00080910A0190910B0190930604809305046A
:100500008BE98093F10188E08093F40180E091E031
:100510009093F3018093F2010E943D0C9093F601B9
:100520008093F50130E020E08091F2019091F30199
:1005300028173907E0F46091F10170E0C90148E043
:1005400050E0FC01E078FF27880F991FEF2B11F096
:100550008627972741505109A1F7E091F501F091C5
:10056000F601E20FF31F80832F5F3F4FDDCF109224
:10057000F3031092F4031092F6031092F503109215
:10058000F9031092FA031092FB031092FC0341E06E
:1005900070E060E086EE91E00E94CD0641E070E000
:1005A00060E08BED91E00C94CD068A5F9D4FFC01DD
:1005B000718360830895DC01A65FBD4F8FEF8C933C
:1005C000FA018081FB0190E0891739F021912E37E3
:1005D00011F49C9308959F5FF7CF0895FA018081ED
:1005E000815050F0282F30E0FB01E20FF31F908183
:1005F0009E37B1F7C90108958FEF9FEF08950F93CC
:100600001F93CF93DF93EB018A010E94EE029C01BE
:100610002F3F320781F0F8019081915060F0492F0F
:1006200050E0FE01E40FF51F80818E37B1F7291BE2
:1006300020839A01F2CFDF91CF911F910F910895FE
:100640009F92AF92BF92CF92DF92EF92FF920F9361
:100650001F93CF93DF931F92CDB7DEB78C016B0151
:10066000DB018D919C917801B6E0EB0EF11C8F3F80
:10067000910508F47EC08EEFD82ED982AE014F5F6F
:100680005F4FB701C8010E94DB02D982AE014F5F04
:100690005F4FB701C8010E94FF02F8012481358134
:1006A000D701C8018C5F9E4FB12CED91EB25E20F75
:1006B000F32FF11DB0808A179B07B9F76801FAEF95
:1006C000CF1AFDEFDF0AD6018D919C91DC01ED91EF
:1006D000FC910190F081E02D6EE70995F601808193
:1006E0009181D801A65FBD4FFC0120813181F901C4
:1006F000208131816C91F9010995D6018D919C91F0
:10070000DC01ED91FC910190F081E02D6EEF0995F7
:10071000F60180819181DC01ED91FC910280F381F1
:10072000E02D4EEF50E0B7010995F60180819181EF
:10073000DC01ED91FC910190F081E02D6B2D09958C
:10074000F60180819181DC01ED91FC910190F081B5
:10075000E02D61E809958EEF0F90DF91CF911F9109
:100760000F91FF90EF90DF90CF90BF90AF909F9050
:1007700008958983AE014F5F5F4FB701C8010E94A2
:10078000DB02F60180818983AE014F5F5F4FB701C5
:10079000C8010E94FF02D6018D919C91D701912C36
:1007A00099279D012E193F092817390750F4ED911B
:1007B0009E26F80124813581F901E90DF11D908013
:1007C000F0CF5801FAEFAF1AFDEFBF0AD5018D91B6
:1007D0009C91DC01ED91FC910190F081E02D6EE7A0
:1007E0000995F50180819181D801A65FBD4FFC017B
:1007F00020813181F901208131816C91F9010995C4
:10080000D5018D919C91DC01ED91FC910190F081DD
:10081000E02DD6016C910995F50180819181D60179
:100820004D915C915527DC01ED91FC910280F381A3
:10083000E02DB7010995F50180819181DC01ED91F1
:10084000FC910190F081E02D692D0995F5018081E1
:100850009181DC01ED91FC910190F081E02D61E846
:100860000995F601808178CF855F9D4FFC018081DD
:100870008F3F61F02EE7FB01E80FF11D9081992376
:1008800019F02083890FF7CF8EE7808308952F9288
:100890003F924F925F926F927F928F929F92AF9210
:1008A000BF92CF92DF92EF92FF920F931F93CF935D
:1008B000DF9300D000D0CDB7DEB79C838B837C0163
:1008C0002AEFE21A2DEFF20AD7018D919C91DC01FB
:1008D000ED91FC910084F185E02D0995892B09F4B7
:1008E00017C10B811C810C5F1D4FCB80DC80B8EFE2
:1008F000CB1ABDEFDB0AEB81FC81EE5FFD4FFA8383
:10090000E9838B809C80FCEF8F1AFEEF9F0AAB80FF
:10091000BC8027EFA21A2DEFB20A22242394312C97
:100920004B805C8035EF431A3DEF530A92E0692E0D
:10093000712CD7018D919C91DC01ED91FC9100848B
:10094000F185E02D0995892B09F4EEC0F70180812E
:100950009181DC01ED91FC910284F385E02D0995F4
:10096000F801208131812230310509F46FC0F0F4A3
:100970002115310509F45EC02130310509F460C04C
:1009800062E971E082E194E00E94430BF80160812A
:1009900071814AE050E082E194E00E94080CA98154
:1009A000BA811C92F80111821082C3CF2430310524
:1009B00009F47FC008F463C02530310509F71182BE
:1009C0001082EB81FC81EE5FFD4F7F010B811C816A
:1009D0000D5F1D4F813809F095C0CB80DC80F8EFAA
:1009E000CF1AFDEFDF0A6B817C816C5F7E4FA60121
:1009F0008B819C810E943404D6018C91F701808305
:100A000091E0D8019C930F900F900F900F90DF9181
:100A1000CF911F910F91FF90EF90DF90CF90BF90FB
:100A2000AF909F908F907F906F905F904F903F908E
:100A30002F9008958E3709F07CCF3182208279CFB4
:100A4000F2018083D8016D927C9273CF8F3F41F089
:100A5000F6018083E3E0F0E0D801ED93FC9369CFE9
:100A6000EB81FC81EE5FFD4F1082D8011D921C923C
:100A7000EB81FC81ED5FFD4F8EEF808347C0D50198
:100A80009C91F6012081921708F053CFEB81FC81F5
:100A9000E90FF11DEC5FFE4F80839F5F291711F076
:100AA0009C9347CF1C9224E030E0F80131832083EF
:100AB00040CFD6012C91D40190E030E0AD0148192F
:100AC00059094217530758F4ED919E27EB81FC8199
:100AD00044815581FA01E90FF11D9081EFCF89130F
:100AE00003C0E5E0F0E0B8CFEB81FC81EE5FFD4FA5
:100AF0001082D8011D921C92EB81FC81ED5FFD4FAD
:100B00008FEFBBCF10828DEFD8018C9380E07BCF2D
:100B1000EB81FC81EE5FFD4F10822B813C812D5FCC
:100B20003D4FD9011C92F2CFEB81FC81EE5FFD4F6E
:100B30001082EB81FC81ED5FFD4F82E09ECFFC01D6
:100B400022A933A9121613064CF584A995A901967A
:100B500095AB84AB8217930714F015AA14AAA4A925
:100B6000B5A9AE0FBF1F5E968C9186ABA4A9B5A99F
:100B7000AE0FBF1F98968C91EB5AFF4F20813181A9
:100B800096E0220F331F9A95E1F78770822B8093AE
:100B90007C0080917A00806480937A000895EF92BF
:100BA000FF920F931F93CF93DF9320917800622FD2
:100BB00070E02091790030E0FC0146A94150550BCE
:100BC000D0E0C0E04A31510538F445555E4FFA0196
:100BD000C0810C2E000CDD0BFC0106A910E0322FA9
:100BE0002227262B372BCC0FDD1FC80FD91F3983A7
:100BF0002883E4A8F5A80E949F05EFA9F8AD3097D7
:100C000059F048815981B801C701DF91CF911F91F7
:100C10000F91FF90EF900994DF91CF911F910F9169
:100C2000FF90EF90089580910704909108040C9430
:100C3000CF051F920F920FB60F9211242F933F935F
:100C40004F935F936F937F938F939F93AF93BF93D4
:100C5000EF93FF930E941306FF91EF91BF91AF9125
:100C60009F918F917F916F915F914F913F912F91C4
:100C70000F900FBE0F901F9018950E94290728EE25
:100C800033E040E050E00E943F0CCA01B9010895F2
:100C9000CF92DF92EF92FF92CF93DF93EC016A0144
:100CA0007B01E885F9850995688379838A839B832D
:100CB000CC82DD82EE82FF8281E08A87DF91CF9154
:100CC000FF90EF90DF90CF900895FC01828508950A
:100CD000CF92DF92EF92FF920F931F93CF93DF9308
:100CE000EC01CC80DD80EE80FF802A8560E070E042
:100CF000CB01222359F0E885F985099508811981EE
:100D00002A813B81601B710B820B930B6C0D7D1D47
:100D10008E1D9F1DDF91CF911F910F91FF90EF903E
:100D2000DF90CF900895CF93DF93FC01228522239B
:100D300041F0EC010E9468066C837D838E839F8363
:100D40001A86DF91CF910895CF92DF92EF92FF92B2
:100D50006A017B010E94680621E06C157D058E0505
:100D60009F0508F420E0822FFF90EF90DF90CF9056
:100D70000895FC0171876087442329F040E050E02A
:100D8000BA010C94480614821582168217821082CA
:100D90001182128213821286089525E337E06130B2
:100DA000710539F02DE336E06230710511F029E26A
:100DB00037E0FC0131872087B9010C94B9061F92F6
:100DC0000F920FB60F9211242F933F938F939F93FF
:100DD000AF93BF9380910A0490910B04A0910C04EF
:100DE000B0910D043091090426E0230F2D3758F5FA
:100DF0000296A11DB11D2093090480930A049093CB
:100E00000B04A0930C04B0930D0480910E049091F8
:100E10000F04A0911004B09111040196A11DB11D01
:100E200080930E0490930F04A0931004B0931104C8
:100E3000BF91AF919F918F913F912F910F900FBED6
:100E40000F901F90189529E8230F0396A11DB11D3F
:100E5000D2CF2FB7F89460910A0470910B0480915F
:100E60000C0490910D042FBF08953FB7F894809122
:100E70000E0490910F04A0911004B091110426B5B6
:100E8000A89B05C02F3F19F00196A11DB11D3FBFC2
:100E9000BA2FA92F982F8827BC01CD01620F711D91
:100EA000811D911D43E0660F771F881F991F4A958A
:100EB000D1F70895789484B5826084BD84B581604B
:100EC00084BD85B5826085BD85B5816085BDEEE652
:100ED000F0E0808181608083E1E8F0E01082808131
:100EE00082608083808181608083E0E8F0E080819F
:100EF00081608083E1EBF0E0808184608083E0EBBF
:100F0000F0E0808181608083E1E9F0E080818260AF
:100F10008083808181608083E0E9F0E0808181606E
:100F20008083E1EAF0E0808182608083808181605B
:100F30008083E0EAF0E0808181608083EAE7F0E08E
:100F400080818460808380818260808380818E7FC5
:100F500080838081806880831092C10008958830EA
:100F600038F092EF980F9B30D8F08931D8F0835148
:100F70002091180190E4299F900111248770822B01
:100F800080937C0080917A00806480937A008091C5
:100F90007A0086FDFCCF80917800909179000895C9
:100FA000892FE6CF8FEFE4CF82508D3008F03DC01F
:100FB000E82FF0E0E252F84F0C94610CF507F907C6
:100FC000EB07F10715081508FC07020806080C08CE
:100FD000150810081608809180008F778093800094
:100FE0000895809180008F7DF9CF84B58F7784BD7F
:100FF000089584B58F7DFBCF8091B0008F7780936B
:10100000B00008958091B0008F7DF9CF809190005D
:101010008F77809390000895809190008F7DF9CF15
:101020008091A0008F778093A00008958091A00008
:101030008F7DF9CFCF93DF9390E0FC01E153FF4F19
:10104000249186519F4FFC0184918823C9F090E040
:10105000880F991FFC01E35EFE4FA591B491FC013E
:10106000EF5EFE4FC591D49161110DC09FB7F8940A
:101070008C91209582238C938881282328839FBF7D
:10108000DF91CF910895623051F49FB7F8943C916D
:10109000822F809583238C93E8812E2BEFCF8FB7FF
:1010A000F894EC912E2B2C938FBFEACF1F93CF9304
:1010B000DF93282F30E0F901EC54FF4F8491F901C0
:1010C000E153FF4FD491F901E651FF4FC491CC2376
:1010D000A9F0162F81110E94D407EC2FF0E0EE0F3B
:1010E000FF1FEF5EFE4FA591B4918FB7F894EC917E
:1010F000111108C0D095DE23DC938FBFDF91CF9113
:101100001F910895DE2BF8CFCF93DF93282F30E087
:10111000F901EC54FF4F8491F901E153FF4FD49151
:10112000F901E651FF4FC491CC23A1F081110E9437
:10113000D407EC2FF0E0EE0FFF1FEB5FFE4FA59101
:10114000B491EC91ED2381E090E009F480E0DF912F
:10115000CF91089580E090E0FACFFC01918D228D2F
:10116000892F90E0805C9F4F821B91098F73992794
:101170000895FC01918D828D981731F0828DE80FD2
:10118000F11D858D90E008958FEF9FEF0895FC018C
:10119000918D828D981761F0A28DAE0FBF2FB11D7A
:1011A0005D968C91928D9F5F9F73928F90E00895D2
:1011B0008FEF9FEF0895FC01538D448D252F30E074
:1011C000842F90E0821B930B541710F0CF96089554
:1011D0000197089581E49AE0892B49F080E090E03E
:1011E000892B29F00E94410A81110E94000080EDA4
:1011F0009AE0892B49F080E090E0892B29F00E9449
:10120000D00A81110C9400000895FC01A48DA80F50
:10121000B92FB11DA35ABF4F2C91848D90E0019638
:101220008F739927848FA689B7892C93A089B18958
:101230008C9180648C93938D848D981306C0028862
:10124000F389E02D80818F7D80830895CF93DF9394
:10125000EC01888D8823B9F0AA89BB89E889F989CE
:101260008C9185FD03C0808186FD0DC00FB607FC03
:10127000F7CF8C9185FFF2CF808185FFEDCFCE0136
:101280000E940509E9CFDF91CF910895EF92FF9277
:101290000F931F93CF93DF93EC0181E0888F9B8D99
:1012A0008C8D981316C0E889F989808185FF11C05B
:1012B000EE89FF896083E889F98980818064808371
:1012C00081E090E0DF91CF911F910F91FF90EF901F
:1012D0000895F62E0B8D10E00F5F1F4F0F7311272F
:1012E000E02E8C8D8E110CC00FB607FCFACFE8896A
:1012F000F989808185FFF5CFCE010E940509F1CFE4
:10130000EB8DEC0FFD2FF11DE35AFF4FF0820B8F99
:10131000EA89FB8980818062D2CFCF92DF92EF92FF
:10132000FF921F93CF93DF93EC016A017B01122F91
:1013300060E874E88EE190E0A70196010E943F0CFE
:1013400021503109410951095695479537952795FF
:10135000E889F98982E08083211580E1380798F0D7
:10136000E889F989108260E472E48FE090E0A701D7
:1013700096010E943F0C21503109410951095695AF
:10138000479537952795EC85FD853083EE85FF855C
:101390002083188EEC89FD891083EA89FB8980817E
:1013A00080618083EA89FB89808188608083EA8903
:1013B000FB89808180688083EA89FB8980818F7DB9
:1013C0008083DF91CF911F91FF90EF90DF90CF90BE
:1013D00008951F920F920FB60F9211242F938F939F
:1013E0009F93EF93FF93E0912204F0912304808177
:1013F000E0912804F091290482FD1BC09081809126
:101400002B048F5F8F7320912C04821741F0E091A1
:101410002B04F0E0EE5EFB4F958F80932B04FF9141
:10142000EF919F918F912F910F900FBE0F901F9072
:1014300018958081F4CF1F920F920FB60F9211244E
:101440002F933F934F935F936F937F938F939F93CC
:10145000AF93BF93EF93FF9382E194E00E9405095D
:10146000FF91EF91BF91AF919F918F917F916F917C
:101470005F914F913F912F910F900FBE0F901F9052
:10148000189582E194E00E94AD0821E0892B09F4CF
:1014900020E0822F0895E2E1F4E01382128288EEC8
:1014A00093E0A0E0B0E084839583A683B78389ECC2
:1014B00091E09183808385EC90E09587848784EC2C
:1014C00090E09787868780EC90E0918B808B81EC11
:1014D00090E0938B828B82EC90E0958B848B86ECF2
:1014E00090E0978B868B118E128E138E148E08953A
:1014F0001F920F920FB60F9211242F938F939F93E9
:10150000EF93FF93E091BF04F091C0048081E091DC
:10151000C504F091C60482FD1BC090818091C8046F
:101520008F5F8F732091C904821741F0E091C80446
:10153000F0E0E155FB4F958F8093C804FF91EF9148
:101540009F918F912F910F900FBE0F901F90189524
:101550008081F4CF1F920F920FB60F9211242F9318
:101560003F934F935F936F937F938F939F93AF932B
:10157000BF93EF93FF938FEA94E00E940509FF91D8
:10158000EF91BF91AF919F918F917F916F915F91FB
:101590004F913F912F910F900FBE0F901F90189574
:1015A0008FEA94E00E94AD0821E0892B09F420E045
:1015B000822F0895EFEAF4E01382128288EE93E01E
:1015C000A0E0B0E084839583A683B78389EC91E0A3
:1015D000918380838DEC90E0958784878CEC90E0FC
:1015E0009787868788EC90E0918B808B89EC90E0E0
:1015F000938B828B8AEC90E0958B848B8EEC90E0C1
:10160000978B868B118E128E138E148E0895AF9247
:10161000BF92CF92DF92EF92FF920F931F93CF93DF
:10162000DF936C017B018B01040F151FEB015E0141
:10163000AE18BF08C017D10759F06991D601ED91D6
:10164000FC910190F081E02DC6010995892B79F775
:10165000C501DF91CF911F910F91FF90EF90DF9027
:10166000CF90BF90AF900895FB0101900020E9F763
:101670003197AF01461B570BDC01ED91FC910280C5
:10168000F381E02D09946115710511F00C94340B70
:1016900090E080E00895DC01ED91FC910190F081F3
:1016A000E02D099467ED71E00C94340B0F931F93B8
:1016B000CF93DF938C01D0E0C0E06115710519F084
:1016C0000E94340BEC01C8010E94520B8C0F9D1F2D
:1016D000DF91CF911F910F9108958F929F92AF92BA
:1016E000BF92EF92FF920F931F93CF93DF93CDB7EB
:1016F000DEB7A1970FB6F894DEBF0FBECDBF7C0159
:10170000FA01CB0119A2223008F42AE08E010F5D04
:101710001F4F822E912CB12CA12CBF01A501940149
:101720000E943F0CF901CA016A300CF5605DD801D6
:101730006E938D01232B242B252B79F790E080E0ED
:10174000109721F0BD01C7010E94340BA1960FB67E
:10175000F894DEBF0FBECDBFDF91CF911F910F91E7
:10176000FF90EF90BF90AF909F908F900895695C2D
:10177000DECFCF92DF92EF92FF920F931F93CF9322
:10178000DF932115310581F4DC01ED91FC9101908D
:10179000F081E02D642FDF91CF911F910F91FF9089
:1017A000EF90DF90CF9009942A30310501F52AE0BF
:1017B00077FF1DC06A017B01EC016DE20E944B0BBB
:1017C0008C0144275527BA014C195D096E097F0920
:1017D0002AE0CE010E946D0B800F911FDF91CF9107
:1017E0001F910F91FF90EF90DF90CF900895DF91C0
:1017F000CF911F910F91FF90EF90DF90CF900C94BD
:101800006D0B9A01AB01770F660B770B0C94B90B3C
:101810000F931F93CF93DF93EC010E94010C8C0177
:10182000CE010E94520B800F911FDF91CF911F912B
:101830000F9108952115310541F4DC01ED91FC91E2
:101840000190F081E02D642F09940C946D0B9A01A6
:10185000AB0170E060E00C941A0C08950E945A07E6
:101860000E942D0C0E946401CAEED8E00E94B801CB
:101870002097E1F30E94EA08F9CF0C94670CA1E2EB
:101880001A2EAA1BBB1BFD010DC0AA1FBB1FEE1FFA
:10189000FF1FA217B307E407F50720F0A21BB30B45
:1018A000E40BF50B661F771F881F991F1A9469F7C1
:1018B00060957095809590959B01AC01BD01CF011D
:1018C0000895EE0FFF1F0590F491E02D09940F93FA
:1018D0001F93CF93DF938230910510F482E090E064
:1018E000E0914E05F0914F0530E020E0B0E0A0E03F
:1018F000309799F42115310509F44AC0281B390B9A
:1019000024303105D8F58A819B816115710589F1F3
:10191000FB0193838283FE0111C0408151810281CA
:10192000138148175907E0F04817590799F41097A1
:1019300061F012960C93129713961C933296CF0176
:10194000DF91CF911F910F91089500934E05109351
:101950004F05F4CF2115310551F04217530738F0E8
:10196000A901DB019A01BD01DF01F801C1CFEF013F
:10197000F9CF90934F0580934E05CDCFFE01E20F36
:10198000F31F819391932250310939832883D7CF54
:1019900020914C0530914D05232B41F420910201FB
:1019A0003091030130934D0520934C0520910001A7
:1019B000309101012115310541F42DB73EB7409119
:1019C000040150910501241B350BE0914C05F09169
:1019D0004D05E217F307A0F42E1B3F0B281739071C
:1019E00078F0AC014E5F5F4F2417350748F04E0F7B
:1019F0005F1F50934D0540934C05819391939FCF6A
:101A0000F0E0E0E09CCFCF93DF930097E9F0FC019A
:101A1000329713821282A0914E05B0914F05ED01CD
:101A200030E020E01097A1F420813181820F931FD4
:101A300020914C0530914D052817390709F061C0F8
:101A4000F0934D05E0934C05DF91CF910895EA01A5
:101A5000CE17DF07E8F54A815B819E0141155105EC
:101A6000B1F7E901FB83EA8349915991C40FD51F6E
:101A7000EC17FD0761F4808191810296840F951F18
:101A8000E90199838883828193819B838A83F0E033
:101A9000E0E012968D919C9113970097B9F52D91E6
:101AA0003C911197CD010296820F931F20914C0516
:101AB00030914D052817390739F6309751F51092B6
:101AC0004F0510924E05B0934D05A0934C05BCCF29
:101AD000D383C28340815181840F951FC817D907D2
:101AE00061F44E5F5F4F88819981480F591F518380
:101AF00040838A819B81938382832115310509F07C
:101B0000B0CFF0934F05E0934E059ECFFD01DC0171
:0C1B1000C0CF13821282D7CFF894FFCF11
:101B1C0000005005800009001700190008001A0089
:101B2C000E000F0010001100014368616E67696EB2
:101B3C006720746F20626174746572790043686108
:101B4C006E67696E6720746F2073686F72650048EA
:101B5C0065617274626561742100556E7265636FA4
:101B6C00676E697A656420636F6D6D616E640042A7
:101B7C005B305D3A0020425B315D3A0020425B32C3
:101B8C005D3A0020425B335D3A002053686F72650A
:101B9C003A002043757272656E743A00205372637A
:101BAC003A004552524F523A20556E646566696E42
:101BBC0065642073746174653A20000102030405A6
:101BCC0006070000000000000001020304050000ED
:101BDC000000000607000000004609070BDB082682
:0A1BEC0009AD08C708B9080D0A008A
:00000001FF
