S019000041425F456E657267795F4D6F64655F4C61622E7333373D
S113000000000420C1010000ED010000ED0100002A
S1130010ED010000ED010000ED010000ED01000024
S1130020ED010000ED010000ED010000ED01000014
S1130030ED010000EC010000ED010000ED01000005
S1130040ED010000ED010000ED010000ED010000F4
S1130050ED010000ED010000ED010000ED010000E4
S1130060ED010000ED010000ED010000ED010000D4
S1130070ED010000ED010000ED010000ED010000C4
S1130080ED010000ED010000ED010000ED010000B4
S1130090ED010000ED010000ED010000ED010000A4
S11300A0ED010000ED010000ED010000D52F00007E
S11300B0ED010000ED010000ED010000ED01000084
S11300C0ED010000ED010000ED010000ED01000074
S11300D0ED010000ED010000ED010000ED01000064
S11300E0ED010000ED010000ED010000ED01000054
S11300F0ED010000ED010000ED010000ED01000044
S1130100ED010000ED010000ED01000010B5054C0B
S1130110237833B9044B13B10448AFF300800123AF
S1130120237010BDA000002000000000E036000095
S113013008B5034B1BB103490348AFF3008008BD66
S113014000000000A4000020E0360000154B002B46
S113015008BF134B9D46A3F5803A00218B460F46FA
S11301601348144A121A03F083F90F4B002B00D0E2
S113017098470E4B002B00D0984700200021040024
S11301800D000D48002802D00C48AFF3008003F0A6
S11301904BF92000290003F0D1F803F031F900BF36
S11301A0000008000000042000000000000000001F
S11301B0A0000020F8000020000000000000000063
S11301C0064880470649074A074B9A42BEBF51F882
S11301D0040B42F8040BF8E7FFF7B8FFE502000050
S11301E0EC36000000000020A0000020FEE700BF65
S11301F080B582B000AF00F025F878600A4BD3F8E0
S113020008311B0AC3F308033B603B6801337A6877
S1130210B2FBF3F37B60054A7B6813607B68184686
S11302200837BD4680BD00BF00400E4008000020D6
S113023080B400AF024B1846BD465DF8047B70479E
S1130240005A620280B483B000AF1C4BD3F89430E0
S113025003F00703023B032B1BD801A252F823F03F
S1130260810200007902000071020000890200008E
S1130270134B1B687B6010E04FF400437B600CE081
S1130280104B1B687B6008E00F4B1B685B087B60AE
S113029003E00D4B1B687B6000BF084BD3F80031B3
S11302A01B0A03F01F0301337A68B2FBF3F3184609
S11302B00C37BD465DF8047B704700BF00400E401C
S11302C004000020000000200C00002080B400AFD7
S11302D0034B1B681846BD465DF8047B704700BF9E
S11302E00000002080B400AF074B084A9A60064B18
S11302F0D3F88830044A43F47003C2F8883000BF4E
S1130300BD465DF8047B704700ED00E0000000008E
S113031080B483B000AF78603960FEE780B487B002
S113032000AFF860B9607A60FB6803F10473DA0027
S1130330BB6813449B007B617B697A681A6000BFC9
S11303401C37BD465DF8047B704780B485B000AFB0
S1130350786039607B6803F10473DA003B68134406
S11303609B00FB60FB681B6818461437BD465DF8AC
S1130370047B704780B400AF064B1B6803F0400356
S1130380002B01D1012300E000231846BD465DF88F
S1130390047B70473C300E4080B500AFFFF7EAFFA6
S11303A0034683F00103DBB2002B08D100BF122106
S11303B00448FFF7CAFF0346002BF8D100E000BF52
S11303C080BD00BF04300E4080B500AFFFF7E4FFEE
S11303D0034B5B681B0C03F00303DBB2184680BDC0
S11303E000300E4080B584B000AF78600123FB601C
S11303F07B68124A934204D80023FB600023BB604D
S113040008E07B680E4A934202D80123BB6001E0F6
S11304100223BB60FA6810210A48FFF77FFF094BEB
S1130420D3F8003123F08072BB681B0605491343DF
S1130430C1F8003100BF1037BD4680BD0048E80157
S11304400090D00300400E4080B584B000AF7860C7
S11304503960204B5B6803F04073FB600023BB6092
S113046012E01D4ABB68DB0013441A793B68DBB217
S11304709A4206D1184ABB6852F833307A689A42D5
S113048006D9BB680133BB60BB68042BE9D900E023
S113049000BFBB68052B07D10323FB6040F6536103
S11304A00E48FFF735FF05E00B4ABB68DB00134439
S11304B05B79FB60FB681B06FB60064B5B6823F003
S11304C040720449FB6813434B6000BF1037BD46BC
S11304D080BD00BF00000E40883500007435000068
S11304E080B582B000AF0E4B1B6C002B14BF0123F0
S11304F00023FB710A4B41F671321A64FFF798FE30
S1130500034600211846FFF79FFFFB79002B02D01A
S1130510034B00221A6400BF0837BD4680BD00BFEC
S113052000000E4080B584B000AF786039600C4B99
S11305301B6C002B14BF01230023FB73084B41F6F3
S113054071321A6439687868FFF77EFFFB7B002BF1
S113055002D0034B00221A6400BF1037BD4680BD91
S113056000000E4080B487B000AF78600F237B6139
S11305707B6803333B617B69FB60FA683B699342A8
S113058028BF1346BB60BB681B07BB60BB6818462B
S11305901C37BD465DF8047B7047000080B400AF93
S11305A0044B5B6A1B0903F003031846BD465DF860
S11305B0047B704700400E4080B483B000AF786085
S11305C0074B5B6A23F030027B681B010449134329
S11305D04B6200BF0C37BD465DF8047B704700BF1B
S11305E000400E4080B483B000AF78600A4BD3F86B
S11305F0443103F00103002B08D100BF064BD3F8AC
S113060040217B681340002BF8D100E000BF0C3779
S1130610BD465DF8047B704700400E4080B400AFD7
S113062000BFBD465DF8047B704780B400AF00BFD7
S1130630BD465DF8047B704780B586B000AF786036
S11306400B46FB7000233B617B681B0A03F00F031E
S1130650013B092B32D801A252F823F08506000091
S113066091060000BD060000BD0600008B060000D8
S113067097060000A1060000BD060000AB060000BE
S1130680B70600001A4B7B611EE01A4B7B611BE02E
S1130690194B7B6118E0194B7B6101233B6113E02B
S11306A0174B7B6110233B610EE0164B7B614FF4CB
S11306B080333B6108E0144B7B6105E041F2F23189
S11306C01248FFF725FE10E07B681B0B03F01F03A5
S11306D0FB603B69002B02D03869FFF783FFFB788E
S11306E01A46F9687869FFF719FE1837BD4680BDC8
S11306F000400E40B0400E40C0400E40E0400E406E
S1130700E8400E40F0400E4050410E407435000069
S113071080B584B000AF78600123FB737B6803F07D
S11307200F03BB60BB68013B072B00F2C48001A22E
S113073052F823F055070000AB070000DB07000068
S1130740B70800002108000051080000B7080000A5
S1130750750800005E4BD3F8943003F00703023BA6
S1130760052B1ED801A252F823F000BF9107000008
S11307708B0700008507000097070000A30700000F
S11307809D0700000223FB730EE00323FB730BE0C1
S11307900423FB7308E00B23FB7305E00C23FB73BA
S11307A002E00523FB7300BF8DE0494BD3F8803092
S11307B003F00703022B06D0042B07D0012B08D12A
S11307C00323FB7308E00223FB7305E00A23FB7396
S11307D002E00123FB7300BF75E03D4BD3F8843086
S11307E003F00703013B032B16D801A252F823F0B0
S11307F00108000007080000130800000D080000AD
S11308000323FB730BE00223FB7308E00A23FB734F
S113081005E00623FB7302E00123FB7300BF52E0F3
S11308202B4BD3F8883003F00703022B06D0042B9C
S113083007D0012B08D10323FB7308E00223FB73C9
S113084005E00A23FB7302E00123FB7300BF3AE0D7
S11308501F4B1B6F03F00103002B04D0012B05D1A8
S11308600923FB7305E00723FB7302E00123FB73F9
S113087000BF28E0164BD3F85C3103F03003102B93
S11308800CD0102B02D8002B05D010E0202B08D060
S1130890302B09D00BE00123FB730BE00723FB7320
S11308A008E00423FB7305E00823FB7302E0012343
S11308B0FB7300BF07E00023FB7341F642110548B8
S11308C0FFF726FD00BFFB7B18461037BD4680BDF1
S11308D000400E407435000080B58AB000AF7860E7
S11308E00B46FB7003237B62032387F8233000232A
S11308F0BB6100237B617B68112B19D1FB78042B2E
S113090003D1FFF7E3FC78610BE0FB78052B08D1FA
S113091000F0F4F90246BA4B9A4202D900F0EEF91B
S113092078617B69002B03D00021786901F022F8FB
S11309307B6803F00F033B613B69013B072B00F22B
S1130940558101A252F823F069090000730A0000DE
S1130950A50A0000ED0B0000870A0000450B00000B
S1130960ED0B00006F0B0000FB78023B0A2B49D80B
S113097001A252F823F000BFA5090000B10900004C
S1130980BD090000CF090000050A0000050A0000A7
S1130990050A0000050A0000F9090000E109000049
S11309A0ED09000004237B62002387F823302FE045
S11309B003237B62012387F8233029E002237B622F
S11309C0022387F823308F48FFF70CFD20E0012332
S11309D07B62032387F823308A48FFF703FD17E07F
S11309E005237B62032387F8233011E007237B620E
S11309F0062387F823300BE041F603218248FFF7F2
S1130A0087FCF9E041F608217F48FFF781FCF3E019
S1130A1097F82330062B06D097F8233001220121C2
S1130A20184600F0B5FAFFF75BFDFFF7F7FD7B69A9
S1130A30002B01D0FFF7B0FC744A7B6A5367FFF7C1
S1130A40D7FBF860FFF7FEFB03461846FFF7CAFC26
S1130A50FFF7BAFC03461946F868FFF763FD7B69A4
S1130A60002B03D10121002000F084FFFFF7DDFDFE
S1130A70C2E0674BBB61FB78062B04D141F64721EA
S1130A806148FFF745FCBB69002B01D0BB6900E05E
S1130A90604BBB61FB78062B04D141F657215A48C1
S1130AA0FFF736FCBB69002B01D0BB6900E05A4B51
S1130AB0BB61FB78013B092B3AD801A252F823F021
S1130AC0E90A0000EF0A0000FF0A0000310B0000F1
S1130AD0310B00000F0B0000310B0000310B000044
S1130AE0310B00002B0B00000023FB6126E00122E8
S1130AF00121002000F04CFA0223FB611EE00122D8
S1130B000121012000F044FA0123FB6116E0FFF704
S1130B1099FB03461846FFF765FC012202213F4872
S1130B20FFF7FCFB0323FB6108E00423FB6105E002
S1130B3041F682213448FFF7EBFB5DE0BB69FA69BB
S1130B401A6059E0FB78072B02D0092B04D007E088
S1130B502E4B00221A6709E02C4B01221A6705E08C
S1130B6041F60C312848FFF7D3FB45E044E0FB781D
S1130B70013B072B28D801A252F823F09D0B00005B
S1130B80C90B0000C90B0000B30B0000C90B000027
S1130B90C90B0000A30B0000C30B00000023FB6182
S1130BA018E001220121042000F0F2F90123FB6185
S1130BB010E001220121022000F0EAF90223FB6186
S1130BC008E00323FB6105E041F66A310E48FFF7B4
S1130BD09FFB11E00D4BD3F85C3123F03002FB692D
S1130BE01B010A491343C1F85C3105E041F6414158
S1130BF00548FFF78DFB00BF2837BD4680BD00BF09
S1130C00002D31010148E8017435000000400E4018
S1130C1080400E4088400E4084400E40B0400E405C
S1130C2080B483B000AF78607B68294A93422FD0A8
S1130C30274A934210D8274A934221D0254A934207
S1130C4003D8254A93421BD03AE0244A934217D052
S1130C50234A934218D033E0224A934224D0214AB3
S1130C60934206D8204A934216D0204A934217D082
S1130C7026E01F4A93421BD01E4A93421CD01FE019
S1130C801D4BD3F880301CE01B4BD3F88C3018E09C
S1130C90194BD3F8983014E0174BD3F89C3010E07C
S1130CA0154BD3F8A0300CE0134BD3F8A83008E070
S1130CB0114BD3F8AC3004E00F4BD3F8B03000E064
S1130CC0002318460C37BD465DF8047B704700BF0F
S1130CD0405DC60080841E0040420F0000093D00B4
S1130CE0C0CF6A0080BA8C010024F400C0EA21015C
S1130CF00048E80180D54302B081E00F80B400AF22
S1130D00034B1B681846BD465DF8047B704700BF63
S1130D100C00002080B586B000AF78607868FFF7DB
S1130D207FFF78617B69002B03D07B69B3F1FF3FC0
S1130D3004D141F6D3514E48FFF7EAFA4D4B1B68F4
S1130D403B614C4A7B6813601120FFF7E1FC0346CA
S1130D50052B03D1FFF7C4FBFFF760FC00BF18218C
S1130D604548FFF7F2FA0346002BF8D17B69B3F14B
S1130D70FF3F04D141F6E4513D48FFF7C9FA7B68CF
S1130D803E4A93420DD03E4A934211D03D4A93428B
S1130D9000D012E07B6923F0C06343F080637B6181
S1130DA00BE07B6923F0C06343F000737B6104E0D4
S1130DB07B6923F0C0637B6100BF1120FFF7A8FCAF
S1130DC00346052B02D17868FFF70CFB7A683B6970
S1130DD09A4203D90121786800F0CCFD2A4A7B6944
S1130DE013611120FFF794FC0346052B26D1FFF76E
S1130DF0FFF9F860FA687B689A4204D941F61061F9
S1130E001B48FFF785FA1B4B1B68FA689A4204D902
S1130E1041F611611648FFF77BFA164B1B687A6896
S1130E209A4204D041F612611148FFF771FAFFF7B4
S1130E30CBFA03461946F868FFF774FBFFF702FA8A
S1130E4003461846FFF7CEFA7A683B699A4203D8FC
S1130E500121002000F08EFD1120FFF759FC03460C
S1130E60052B01D1FFF7E1FB00BF1837BD4680BD5C
S1130E70743500000C00002040410E4080841E00A8
S1130E8000093D0040420F0000400E4090B585B07F
S1130E9000AF78601120FFF73BFC0346042B04D11C
S1130EA041F6F1613748FFF733FA012200210220AD
S1130EB000F06EF87B685B78002B07D17B689B7829
S1130EC0002B03D17B68DB78002B04D041F62F7113
S1130ED02C48FFF71DFA0023FB607B681B7C012B69
S1130EE004D141F634712748FFF712FA7B681B7C62
S1130EF0022B01D10123FB60234B5B6A23F0010227
S1130F002149FB6813434B627B681B781A4608210E
S1130F101E48FFF703FA7B689B88DB027A68527AE3
S1130F201146194A0B43D362174B1B6B03F07F62C4
S1130F307B68DB88DB0213437A68927A1A437B6806
S1130F401B7ADB0142EA03047B681B7A1846FFF72D
S1130F5009FB03460C4A234313637B685B7B1A0338
S1130F607B689B7B1B0113437A68D27B1A437B68A3
S1130F701B7B1B04044913434B6300BF1437BD465A
S1130F8090BD00BF7435000000400E4024400E4068
S1130F9080B588B000AF0346FB710B46BB711346A6
S1130FA07B71FB79042B3CD801A252F823F000BFDB
S1130FB00D100000FB0F0000D70F0000C50F00004C
S1130FC0E90F000001237B6102233B610123FB61E4
S1130FD00023BB612BE004237B6108233B610323D3
S1130FE0FB610223BB6122E010237B6120233B6170
S1130FF00523FB610423BB6119E040237B6180234B
S11310003B610723FB610623BB6110E04FF480734F
S11310107B614FF400733B610923FB610823BB61CF
S113102005E042F247014548FFF772F983E0BB79D6
S1131030002B64D00023FB73FB79022B1AD1FFF73A
S1131040ADFA0346002B15D13D4BDB6B03F48063F3
S1131050002B04D142F256013848FFF759F9012315
S1131060FB73384B5B6A03F00103012B02D10120AF
S1131070FFF7A2FA334A7B69136600BFB9693248A5
S1131080FFF763F90346002BF8D07B79002B52D08D
S113109000BFF9692C48FFF758F90346002BF8D034
S11310A0FB79022B47D1FB7B002B44D0254B5B6A99
S11310B003F00103012B05D101222021022000F0BD
S11310C087F903E00021022000F028F9022000F053
S11310D03DF8B860012200210220FFF759FFB968EA
S11310E0022000F071F8174A7B69136600BFF969A2
S11310F01548FFF72AF90346002BF8D01BE0114AE4
S11311003B69136600BF0F4BD3F890300121BA69D5
S113111001FA02F21340002BF5D17B79002B0AD09F
S113112000BF084BD3F890300121FA6901FA02F2AA
S11311301340002BF5D12037BD4680BD7435000027
S113114000300E4000400E4090400E4080B584B008
S113115000AF0346FB71FB79013B032B23D801A2AB
S113116052F823F07511000099110000811100005C
S11311708D110000124B1B6AC3F30803FB601AE0D5
S11311800F4B1B6903F07F03FB6014E00C4B9B695E
S113119003F07F03FB600EE0094BD3F89C30C3F3EC
S11311A00A03FB6007E00023FB6042F2D301054819
S11311B0FFF7AEF800BFFB6818461037BD4680BD88
S11311C000400E407435000080B584B000AF034683
S11311D03960FB71FB79013B032B00F28C8001A287
S11311E052F823F0F5110000A91200003512000096
S11311F06F1200003B68B3F5007F04D342F2F9019B
S11312004248FFF785F83B68C3F308033B6000BF1F
S11312101A213F48FFF799F80346002BF8D13D4BBC
S11312201B6A23F4FF7323F001033A493A6813431A
S11312300B6266E03B687F2B04D942F20611334807
S1131240FFF766F83B6803F07F033B6000BF18219B
S11312502F48FFF77AF80346002BF8D12D4B1B6972
S113126023F07F022B493B6813430B6149E03B6841
S11312707F2B04D942F221112448FFF749F83B6837
S113128003F07F033B6000BF19212148FFF75DF89D
S11312900346002BF8D11F4B9B6923F07F021D49A5
S11312A03B6813438B612CE01A4BD3F8903003F066
S11312B00403002B04D042F230111448FFF728F83D
S11312C0144B5B6A23F03003124A43F01003536259
S11312D03B68DB0903F00F031846FFF743F9F86096
S11312E00C4B1A6B0C4B13403A681A430949FB68C0
S11312F013430B6305E042F24A110448FFF708F870
S113130000BF00BF1037BD4680BD00BF743500006C
S113131040410E4000400E4000F8FF0F80B584B0FD
S113132000AF03460A46FB711346BB71FB79022BDF
S113133004D042F262112348FEF7EAFFFFF72EF9C8
S11313400346002B03D14FF44003FB601BE0BB7941
S1131350202B04D0302B0AD0002B04D00BE04FF408
S11313600003FB600FE04FF44003FB600BE04FF41D
S11313704003FB6007E0144BFB6042F27D1111480F
S1131380FEF7C6FF00BF00BF104BD3F89020FB68E8
S11313901340FA689A42F7D1FB6803F48003002BE8
S11313A00AD00A4BD3F8A03003F48063002B14BF97
S11313B001230023DBB200E0012318461037BD46A9
S11313C080BD00BF74350000FF33E10700400E40CC
S11313D080B582B000AF0346FB710B46BB71134668
S11313E07B71FB79022B15D1BB79002B07D00F4BF6
S11313F04FF48062C3F8A8200C4ABB7953667B790A
S1131400002B0DD0BA79FB7911461846FFF786FFF9
S1131410034607E042F2B3110548FEF779FF00E006
S113142000BF012318460837BD4680BD00400E406A
S11314307435000080B483B000AFEFF310833B60D9
S11314403B687B6072B67B6818460C37BD465DF816
S1131450047B704780B483B000AF78607B68002B56
S113146000D162B600BF0C37BD465DF8047B7047FF
S113147080B500AFFEF7BCFE00BF80BD80B487B06E
S113148000AFF860B9607A60FB6803F10473DA00B6
S1131490BB6813449B007B617B697A681A6000BF58
S11314A01C37BD465DF8047B704780B485B000AF3F
S11314B0786039607B6803F10473DA003B68134495
S11314C09B00FB60FB681B6818461437BD465DF83B
S11314D0047B704780B400AF064B1B6803F04003E5
S11314E0002B01D1012300E000231846BD465DF81E
S11314F0047B70473C300E4080B500AFFFF7EAFF35
S1131500034683F00103DBB2002B08D100BF122194
S11315100448FFF7CAFF0346002BF8D100E000BFE0
S113152080BD00BF04300E4080B500AFFFF7E4FF7C
S1131530034B5B681B0C03F00303DBB2184680BD4E
S113154000300E4080B483B000AF7860044A7B68FA
S1131550D36200BF0C37BD465DF8047B704700BF03
S113156000300E4080B400AF034B5B6A1846BD46A2
S11315705DF8047B704700BF00300E4080B400AFBC
S1131580034B00225A6300BFBD465DF8047B7047DD
S113159000300E4080B400AF044B4AF6E8525A6360
S11315A000BFBD465DF8047B704700BF00300E40AD
S11315B080B400AF044B0022C3F8802100BFBD46B5
S11315C05DF8047B704700BF00400E4080B400AF5C
S11315D0044B45F60E02C3F8802100BFBD465DF8FA
S11315E0047B704700400E4080B483B000AF0346D4
S11315F0FB71FB79C3F10203102202FA03F31846CC
S11316000C37BD465DF8047B7047000090B585B08B
S113161000AF0346FB71FB79002B1BD14A4BD3F877
S113162090304A4A13601120FFF772F803461A46B5
S1131630474B1A70FFF760FF464B5B681B0CDBB22D
S113164003F00303DAB2444B1A703F4B1B69434A5D
S1131650136075E0FFF73EFF0346002B07D03E4BB7
S11316601B783C4C1846FFF7BFFF03462361364BFB
S1131670D3F8803103F00103FB60FFF7A7FF0023D9
S1131680BB60324B1B6803F00103BA681343BB60B1
S11316902E4B1B6803F01003BA681343BB602B4B3B
S11316A01B6803F04003BA681343BB60274B1B68F5
S11316B003F00403BA681343BB60244B1B6803F4B0
S11316C08073BA681343BB601F4ABB681366FFF795
S11316D013FF204B1B6803F01003002B18D000BF2E
S11316E0194BD3F8403103F08073002BF8D1164A1C
S11316F01A4B1B681361164B1B78052B08D1184B2A
S11317001C68FFF711FF034619462046FEF70AFF3F
S11317100F4B1B78052B05D00D4B1B781946112058
S1131720FFF7DAF8094B1B6803F00103002B02D121
S1131730054B02221A66FB68002B01D0FFF738FF25
S113174000BF1437BD4690BD00400E40C8000020C5
S1131750CC00002000300E40CD000020D00000203E
S11317600C00002080B582B000AFFFF7B3FE034643
S113177083F00103DBB2002B1FD1FFF7BDFE114B39
S11317801B681B0A03F003037B600E4B5B681B0C96
S113179003F003033B607A683B689A4206D9094B1D
S11317A01B68084A43F01003136007E0054B1B68ED
S11317B0044A23F01003136000E000BF0837BD465D
S11317C080BD00BF00300E4080B483B000AF0C4B2E
S11317D01B6803F01003002B0BD00A4B1B691B0C76
S11317E003F01F037B607B68082B02D1064B074A7A
S11317F01A6000BF0C37BD465DF8047B704700BF1C
S113180000300E4000400E400C000020C0EA2101D0
S113181080B400AF00BFBD465DF8047B704780B460
S113182000AF00BFBD465DF8047B704780B584B04F
S113183000AF0346FB71FB79002B02D00020FFF7B9
S1131840E5FEFFF78FFF1A4B1B69194A43F00403A7
S11318501361FFF7DDFF174B1B6803F01003002B28
S113186008D0FFF7E7FDF86001F01AFEF868FFF70B
S1131870F1FD00E030BFFFF7D2FFFB79002B03D06E
S11318800120FFF7C3FE01E0FFF79EFF0A4B1B6830
S1131890094A23F000431360FB7983F00103DBB2B0
S11318A0002B01D0FFF7E4FD00BF1037BD4680BD1B
S11318B000ED00E000300E404C310E4080B584B0A5
S11318C000AF0346FB71FB79002B02D00020FFF729
S11318D09DFEFFF747FF234BD3F8803103F001034C
S11318E0FB60FFF773FE1F4B4FF420721A66FB6810
S11318F0002B01D0FFF75CFE1B4B1B691A4A43F017
S113190004031361FFF784FF184B1B6803F01003F3
S1131910002B08D0FFF78EFDB86001F0C1FDB86858
S1131920FFF798FD00E030BFFFF779FFFB79002B4C
S113193003D00120FFF76AFE01E0FFF745FF0C4BDF
S11319401B680B4A23F000431360FB7983F0010307
S1131950DBB2002B01D0FFF78BFD00BF1037BD4673
S113196080BD00BF00400E4000ED00E000300E409E
S11319704C310E4080B584B000AF78600B46FB70EC
S1131980FFF7A8FD034683F00103DBB2002B28D147
S11319907B68002B0FD1154BD3F800311B0A03F0E1
S11319A01F030133BB60FEF74DFC0246BB6802FB1C
S11319B003F3FB6001E07B68FB600D4B1B78002B9D
S11319C009D0FB680B4A934205D8FB7819460220DC
S11319D000F012F806E0FB781946002000F00CF83D
S11319E000E000BF1037BD4680BD00BF00400E4080
S11319F0C4000020002D310190B587B000AF03462C
S1131A000A46FB711346BB71FFF764FD034683F07E
S1131A100103DBB2002B3AD1FFF786FD03461A46D9
S1131A20FB79934235D01D4BD3F800311B0A03F0E8
S1131A301F0301337B61FEF705FC38613B697A695A
S1131A4002FB03F3FB60FB79022B0CD1FB68144A05
S1131A50934204D940F2E1511248FEF759FC0221A5
S1131A603869FEF75FFD104CFB791846FFF7BCFDA3
S1131A7003462361BB79002B01D0FFF73DFDFB79C1
S1131A80002B07D100213869FEF74CFD02E000BFAE
S1131A9000E000BF1C37BD4690BD00BF00400E40B3
S1131AA0002D3101B035000000300E4080B582B009
S1131AB000AF78600E4B1B6823F440727B685B7840
S1131AC01B020B4913430B607B685B78022B0AD122
S1131AD0084B5B6A03F00053002B04D040F21D61F5
S1131AE00548FEF715FC00BF0837BD4680BD00BFA2
S1131AF000300E4000400E40B035000080B400AF0E
S1131B0001231846BD465DF8047B704780B582B05A
S1131B1000AF0C4BDB6E0B4A43F08073D36600219D
S1131B200948FFF7C2FC78607B68002B03D00420CF
S1131B3000F04EFD02E0002000F04AFD00BF08372F
S1131B40BD4680BD00300E404C300E4080B58AB09A
S1131B5000AF01237B627B6A1B053B62404BDB6C5D
S1131B601B0A03F00F03FB613E4B1B881A463D4BD7
S1131B701B8828335B08134403F12801FB695A1CB2
S1131B8013469B001344B1FBF3F3013BBB61BB69F8
S1131B907B6107233B613A697B69934228BF134603
S1131BA0BB61BB691B06BB61BB6923F0E063002B0F
S1131BB004D040F2FF712C48FEF7AAFB3B6A23F4E1
S1131BC0E003002B04D04FF400612748FEF7A0FB8C
S1131BD0234BDB6C23F0EE62B9693B6A0B4320496B
S1131BE01343CB64214BB3F90030002B33DB1F4B81
S1131BF0B3F90030FB81FA89FB8928335B0813446D
S1131C0003F12802FB6901335900FB6901335B08C6
S1131C100B44B2FBF3F3BB60BB687B6007233B6000
S1131C203A687B68934228BF1346BB60BB681B01BC
S1131C30BB60BB6823F07003002B04D040F618018E
S1131C400948FEF765FB064B1B6D23F0700204493F
S1131C50BB6813430B6500BF2837BD4680BD00BF7A
S1131C6000300E40BC000020B0350000C000002051
S1131C7080B483B000AF78600B467B807B689AB2F7
S1131C80054B1A80054A7B88138000BF0C37BD467C
S1131C905DF8047B704700BFBC000020C00000203A
S1131CA080B582B000AF0346FB71FB79002B02D0F4
S1131CB0012B04D007E0094B094A9A6509E0074B58
S1131CC0084A9A6505E040F644010748FEF720FB00
S1131CD000BF00BF0837BD4680BD00BF00300E40C6
S1131CE077402057372110B7B035000080B584B055
S1131CF000AF0346FB710B46BB7113467B71334B3C
S1131D00D3F88031FB60BB79032B1DD801A252F8B4
S1131D1023F000BF251D00002D1D0000371D00000D
S1131D20411D0000FB68DBB2FB6014E0FB681B0A8A
S1131D30DBB2FB600FE0FB681B0CDBB2FB600AE06C
S1131D40FB681B0EFB6006E040F688012048FEF7A6
S1131D50DFFA002336E07B79002B16D1FB681B03E6
S1131D60FB60FB6823F47043002B06D040F693011C
S1131D701748FEF7CDFA002324E0164BDB6E23F45C
S1131D8070421449FB681343CB667B79012B18D14D
S1131D90FB681B03FB60FB6823F47043002B06D035
S1131DA040F69F010A48FEF7B3FA00230AE0094B04
S1131DB0D3F8EC3023F470420649FB681343C1F8AE
S1131DC0EC30012318461037BD4680BDB081E00FCA
S1131DD0B035000000300E4080B588B000AFF86028
S1131DE0B96011461A460B46FB711346BB710023BA
S1131DF0FB610023BB61BB791B02FA79002A01D085
S1131E00012200E0002213437B617B6940F201124E
S1131E1093422AD0B3F5817F07D2012B19D0012B2D
S1131E2047D3B3F5807F50D073E040F20122934250
S1131E3027D040F20122934203D8B3F5007F50D05B
S1131E4067E0B3F5407F58D040F20132934224D08A
S1131E505FE0384BD3F87431FB61FB691B0ADBB2DA
S1131E60BB61FB69DBB2FB6159E0324BD3F87431DF
S1131E70FB61FB691B0EBB61FB691B0CDBB2FB61E5
S1131E804DE02C4BD3F87831FB61FB691B0ADBB2C4
S1131E90BB61FB69DBB2FB6141E0264BD3F87831CF
S1131EA0FB61FB691B0EBB61FB691B0CDBB2FB61B5
S1131EB035E0204BD3F86C31FB61FB691B0ADBB2C4
S1131EC0BB61FB69DBB2FB6129E01A4BD3F86C31CF
S1131ED0FB61FB691B0EBB61FB691B0CDBB2FB6185
S1131EE01DE0144BD3F87031FB61FB691B0ADBB2B4
S1131EF0BB61FB69DBB2FB6111E00E4BD3F87031BF
S1131F00FB61FB691B0EBB61FB691B0CDBB2FB6154
S1131F1005E040F604110848FEF7FAF900BFFB6833
S1131F20FA691A60BB68BA691A6000BF2037BD46F7
S1131F3080BD00BFB081E00FB035000080B584B033
S1131F4000AF0346FB713E4B5B6B012B0CBF0123BF
S1131F500023FB73FFF71EFB00BF394B9B6F03F09D
S1131F600103002BF9D1364B1B6C03F00303BB6058
S1131F70BB68002B04D001220D213248FFF77EFA02
S1131F80BB68DBB2FA799A4208D1FB79002B53D1B2
S1131F9000220D212B48FFF771FA4DE0BB68032B9B
S1131FA002D0BB68002B20D1FB79022B02D0FB7935
S1131FB0012B1AD14FF40020FFF7C4FA00BF204BC5
S1131FC09B6F03F00103002BF9D11D4B1B6C23F015
S1131FD003031B4A43F00103136400BFFFF7C2FA73
S1131FE0034603F40023002BF8D000BF144B9B6F6F
S1131FF003F00103002BF9D1114B1B6C23F00302F6
S1132000FB790F4913430B6400BF0D4B9B6F03F027
S11320100103002BF9D1FB79002B14BF012300230A
S1132020DBB21A460D210748FFF728FAFB7B002B89
S113203003D0FFF7A3FA00E000BF1037BD4680BD10
S113204000300E4054300E4080B584B000AF78604C
S11320506B4B02229A636A4B9B6B03F00F03022BB8
S113206006D040F6A6116748FEF752F90023C3E0F4
S1132070FFF744FD7B681B89C82B04D94FF41B610F
S11320806048FEF745F97B689A887B681B899A4209
S113209004D940F6B1115B48FEF73AF97B68B3F90D
S11320A00C30C82B04DD40F6B2115648FEF730F967
S11320B07B685B78012B09D17B689B88C82B12D97C
S11320C040F6B6114F48FEF723F90CE07B685B78C5
S11320D0022B08D17B689B880A2B04D940F6BB11DC
S11320E04848FEF715F97B68DB8842F21072934288
S11320F004D940F6C3114348FEF70AF97B68DB882C
S11321004A2B02D80023FB6015E07B68DB88B3F51B
S1132110FA7F03D24FF08053FB600CE07B68DB88CE
S113212040F6C312934203D84FF00053FB6002E021
S11321304FF04053FB60324BDB6C23F0405323F0F1
S113214001037A68B2F90C20002A01DB012100E0C6
S11321500021FA680A432A491343CB64284BD3F875
S1132160EC30274A43F44073C2F8EC307B689A8819
S1132170254B1A80FFF7CAFC7B681B891A467B68CB
S1132180B3F90C3019461046FFF772FD7B689B8843
S1132190184600F0A9F97B689B7B1846FFF780FD81
S11321A07B685B8801220121184600F031F8034660
S11321B083F00103DBB2002B06D040F6FA1111487C
S11321C0FEF7A6F8002317E00D4BDB6B0C4A43F433
S11321D08063D3637B685B781846FFF7AFFE7B6848
S11321E09B7A202B01D1012300E000231A4605210C
S11321F00648FFF743F9012318461037BD4680BD52
S113220000300E40B0350000BE0000203C300E40CF
S113221090B595B000AF78600B46FB701346BB7069
S11322200023FB6400237B6407F1240300221A606B
S11322305A609A6007F1180300221A605A609A6083
S113224007F10C0300221A605A609A6007F1080330
S113225000210A461A800A469A707B68B3F5E16F3A
S113226006D37B6840F6B832934201D8012300E0DC
S1132270002387F8433097F8433003F0010387F8CD
S1132280433097F8433083F00103DBB2002B06D0D0
S113229040F63F219148FEF73BF8002319E17B68A3
S11322A0B3F5E16F8CBF0123002387F8423097F820
S11322B04230002B0AD04FF4E163FB6440F6B8339C
S11322C07B647A6CFB6CD31ABB6409E04FF49663AD
S11322D0FB644FF4E1637B647A6CFB6CD31ABB64DC
S11322E097F84230002B0BD07D4BD3F868313B621A
S11322F03B6A1B0E7B613B6A1B0CDBB23B620AE050
S1132300774BD3F868313B623B6A1B0ADBB27B61D3
S11323103B6ADBB23B62734BDB6C1B0FDBB203F03B
S11323200303DBB23B723B7A97F8422007F10C01BE
S113233007F11800FFF750FD6A4BD3F8EC301B0A85
S1132340DBB203F00303DBB27B727C7A97F84220A2
S113235007F10C03191D07F11803181D2346FFF795
S11323603BFD7A68FB6CD31A79693A6A8A1A02FBD4
S113237003F2BB6CB2FBF3F3FB62FA6A3B6A1344ED
S1132380FB627A68FB6CD31AF968BA698A1A02FB91
S113239003F2BB6CB2FBF3F37B627A6ABB6913444E
S11323A07B627A68FB6CD31A3969FA698A1A02FB70
S11323B003F2BB6CB2FBF3F3BB62BA6AFB6913446E
S11323C0BB62FA6A7B699A4213D8FA6A3B6A9A42F8
S11323D00FD3BA6A3B699A420BD8BA6AFB699A422C
S11323E007D37A6AFB689A4203D87A6ABB699A422D
S11323F006D240F68D213948FDF78AFF002368E0B4
S1132400BB78002B12D0374BDB6D23F4FE4323F053
S11324100203FA6A1202134397F84220002A01D0F9
S1132420022200E000222F491343CB65FB78002BE6
S11324304ED0397A97F8423000221846FFF756FCFE
S1132440034683F00103DBB2002B06D040F69C2147
S11324502248FDF75DFF00233BE0797A97F842308C
S113246001221846FFF742FC034683F00103DBB266
S1132470002B06D040F6A4211848FDF749FF00239D
S113248027E07B6AFB63BB6ABB63BA6BFB6B93425B
S113249038BF13467B627B6A7B63E7233B633A6BFB
S11324A07B6B934228BF13467B620E4B5B6E23F417
S11324B0FF7323F001037A6A5200134397F8422012
S11324C0002A01D0012200E00022064913434B6692
S11324D0012318465437BD4690BD00BFB0350000F7
S11324E0B081E00F00300E4080B584B000AF78605A
S11324F00023FB60344B1B6F03F00703BB60324BBC
S1132500DB6C03F00103002B14D0BB68012B11D941
S11325107B68132B02D80423FB603DE07B68132BFC
S113252005D97B68272B02D80823FB6034E01023ED
S1132530FB6031E0244BDB6C03F00103002B14D16E
S1132540BB68012B11D87B68092B02D80423FB60DC
S113255022E07B68092B05D97B68132B02D808235A
S1132560FB6019E01023FB6016E0174BDB6C03F0F3
S11325700103002B0BD0BB68012B08D87B68272BE9
S113258002D80823FB6007E01023FB6004E040F658
S1132590E2210E48FDF7BCFEFB68013BFB60FB68D3
S11325A01A02FB681B031343FB60074BDB6C23F429
S11325B07F420549FB681343CB64FFF7C7FA00BFAA
S11325C01037BD4680BD00BF00300E40B03500005E
S11325D080B584B000AF0346FB7100211148FEF7BB
S11325E064FFF860FB68002B02D1FB79012B07D94B
S11325F0FB68002B04D140F601310B48FDF788FE3F
S11326000A4B1B6F23F00702FB79084913430B673E
S1132610074B1B881846FFF767FF00BF1037BD46FE
S113262080BD00BF4C300E40B035000000300E407D
S1132630BE00002080B485B000AF786039607B684C
S113264003F1C063FB60FB683A681A6000BF14378B
S1132650BD465DF8047B704780B485B000AF7860F8
S113266039607B6803F18063FB60FB683A681A6039
S113267000BF1437BD465DF8047B704780B584B055
S113268000AFF860B9607A60B968F868FFF7E4FFF2
S11326907968F868FFF7CEFF00BF1037BD4680BDEC
S11326A080B582B000AF03463960FB71FB79002B23
S11326B038D0FB79012B32D0FB79022B2CD0FB795B
S11326C0032B26D0FB79042B21D0FB79052B1BD0BF
S11326D0FB79062B16D0FB79072B11D0FB79082B3D
S11326E00CD0FB79092B06D0FB790A2B01D10723E7
S11326F01AE0002318E04FF4404315E00F2313E0E1
S1132700002311E000230FE04FF6FF730CE00023D9
S11327100AE04FF47F4307E040F6FF7304E04FF60E
S1132720C07301E040F2FF333A68134103F0010340
S1132730002B04D14FF477710C48FDF7E9FDFA79C9
S113274013465B0013441B010C3303F1804303F570
S1132750204301213A6801FA02F211461846FFF7B4
S11327607BFF00BF0837BD4680BD00BFC4350000F5
S113277080B582B000AF03463960FB71FB79002B52
S113278038D0FB79012B32D0FB79022B2CD0FB798A
S1132790032B26D0FB79042B21D0FB79052B1BD0EE
S11327A0FB79062B16D0FB79072B11D0FB79082B6C
S11327B00CD0FB79092B06D0FB790A2B01D1072316
S11327C01AE0002318E04FF4404315E00F2313E010
S11327D0002311E000230FE04FF6FF730CE0002309
S11327E00AE04FF47F4307E040F6FF7304E04FF63E
S11327F0C07301E040F2FF333A68134103F0010370
S1132800002B04D140F20B410C48FDF781FDFA790D
S113281013465B0013441B010C3303F1804303F59F
S1132820204301213A6801FA02F211461846FFF7E3
S113283001FF00BF0837BD4680BD00BFC43500009E
S113284080B582B000AF03463960FB71FB79002B81
S11328501DD0FB79012B1AD0FB79022B17D0FB7901
S1132860032B14D0FB79042B16D0FB79052B0ED047
S1132870FB79062B10D0FB79072B0DD0FB79082BA5
S113288005D0FB79092B02D0FB790A2B04D13B68D4
S113289023F00113002B03D082210B48FDF738FDF0
S11328A0FA7913465B0013441B0103F1804303F5DB
S11328B020433A684FF001111846FFF7DFFE00BFCE
S11328C00837BD4680BD00BF2836000080B584B0FF
S11328D000AFB9607B600346FB731346BB73FB7B9D
S11328E0002B38D0FB7B012B32D0FB7B022B2CD06E
S11328F0FB7B032B26D0FB7B042B21D0FB7B052BFE
S11329001BD0FB7B062B16D0FB7B072B11D0FB7B4C
S1132910082B0CD0FB7B092B06D0FB7B0A2B01D1A7
S113292007231AE0002318E04FF4404315E00F2377
S113293013E0002311E000230FE04FF6FF730CE0D7
S113294000230AE04FF47F4307E040F6FF7304E0FE
S11329504FF6C07301E040F2FF33BA68134103F04D
S11329600103002B04D140F21B113948FDF7D0FCC0
S1132970BB7B002B0DD07B68002B05D0FB7BB9689B
S11329801846FFF7F5FE04E0FB7BB9681846FFF72D
S113299087FEBB68072B20D82E49FA7B13465B00C1
S11329A013441B010B4404331A68BB689B000F21BA
S11329B001FA03F3DB431340B97BBA68920001FACE
S11329C002F211462348FA7B194313465B00134471
S11329D01B0103440433196025E01E49FA7B1346A6
S11329E05B0013441B010B4408331A68BB6803F1F2
S11329F08043083B9B000F2101FA03F3DB4302EA07
S1132A000301BA7BBB6803F18043083B9B0002FAD5
S1132A1003F31048FA7B194313465B0013441B016C
S1132A20034408331960BB7B002B0DD17B68002B5A
S1132A3005D0FB7BB9681846FFF79AFE04E0FB7BE0
S1132A40B9681846FFF72CFE00BF1037BD4680BD9D
S1132A502836000000A0004080B483B000AF786046
S1132A60396000BF7B685A6B3B681340002BF9D177
S1132A7000BF0C37BD465DF8047B704780B582B05B
S1132A8000AF78600B46FB707B680D4A934204D01C
S1132A904FF489710B48FDF73BFC02217868FFF77E
S1132AA0DBFFFB78002B03D07B6801225A6002E035
S1132AB07B6802225A6000BF0837BD4680BD00BF54
S1132AC0006004403C36000080B584B000AF7860FC
S1132AD039600023FB607B683D4A934204D040F296
S1132AE06F113C48FDF714FC3B681B7883F001032D
S1132AF0DBB2002B0CD07B689B6803F00103002B36
S1132B0006D002217868FFF7A7FF7B6802225A608B
S1132B103B685B78002B03D0FB6843F48053FB6075
S1132B203B689B78002B03D13B68DB68002B0BD000
S1132B30FB6843F40073FB603B68DB68002B03D045
S1132B403B68DA687B681A613B68DB78002B03D04A
S1132B50FB6843F48073FB603B681B79002B03D054
S1132B60FB6843F04003FB603B685B79002B03D0B8
S1132B70FB6843F08003FB603B689B799B001A462B
S1132B80FB681343FB603B68DB791B011A46FB6857
S1132B901343FB603B681B7A1A46FB681343FB60D4
S1132BA07B68FA681A603B681B78002B0CD07B6842
S1132BB09B6803F00103002B06D102217868FFF71C
S1132BC04BFF7B6801225A6000BF1037BD4680BDB1
S1132BD0006004403C36000080B500AF00F092F87D
S1132BE000F0B0F84FF4E0531C220549054800F00A
S1132BF00BF800F045FA00F099FA00BF80BD00BF61
S1132C009A99193ECDCC2C4080B590B000AFF860B5
S1132C10B9607A603B6000233B7400237B7401231A
S1132C203B7701237B777B687B613B68BB61FB68F7
S1132C303B62BB687B62012387F83830002387F846
S1132C402830002387F830300123FB6202237B63A2
S1132C500423FB6307F110031946054800F0AEF89E
S1132C600121034800F084F900BF4037BD4680BD10
S1132C700060044080B582B000AF00F03BFA034628
S1132C8003F00403002B03D181210F48FDF740FB1F
S1132C90042000F017FA00F0E3FA7860786800F096
S1132CA077FA7B68032B05D87B680133184600F05C
S1132CB055FA05E07B68042B02D1002000F04EFA9F
S1132CC000BF0837BD4680BD5436000080B500AF54
S1132CD0012000F0F7F99D210248FDF719FB00BF20
S1132CE080BD00BF5436000080B500AF022000F064
S1132CF0E9F9AF210248FDF70BFB00BF80BD00BF1F
S1132D005436000080B500AF01210B48FDF794FC58
S1132D10002200210120FEF73BF9002200210020BF
S1132D20FEF736F90A210548FDF7D6FD01210448CE
S1132D30FDF782FC00BF80BD4041050002001E007B
S1132D4030253E0080B500AF01210C48FDF774FC2E
S1132D5000210520FFF774FD00230422042105202F
S1132D60FFF7B4FD00210520FFF76AFD00230422CC
S1132D7005210520FFF7AAFD00BF80BD00350A002C
S1132D8080B483B000AF0346FB7197F90730002B82
S1132D900BDBFB7903F01F02074997F907305B0946
S1132DA0012000FA02F241F8232000BF0C37BD468F
S1132DB05DF8047B704700BF00E100E080B588B097
S1132DC000AF786039607B68624A934203D1012185
S1132DD06148FDF731FC0021786800F0C9F87B6890
S1132DE001225A6000BF7B685B6B002BFBD17B68C0
S1132DF09B6803F00103002B03D153215748FDF7CF
S1132E0087FA7B6802225A6000BF7B685B6B002BE9
S1132E10FBD17B680022DA600023FB720123BB72C2
S1132E203B681B787B723B685B783B7200233B7387
S1132E3000237B7300233B740323BB730323FB73C3
S1132E4007F1080319467868FFF73EFE00BF7B6868
S1132E505B6B002BFBD13B68D3ED047A9FED407A8A
S1132E6067EE877AFCEEE77A17EE903AFB613B68EF
S1132E70D3ED057A9FED3A7A67EE877AFCEEE77A2E
S1132E8017EE903ABB617B68FA691A617B68BA698C
S1132E905A617B68FF229A617B68FF22DA613B6892
S1132EA05A683B689B681A437B685A643B681B7B7F
S1132EB01A463B685B7B5B001A437B681A647B6839
S1132EC007229A623B6893F82830002B05D07B6870
S1132ED0DB6A43F004027B68DA623B681B7E002BEA
S1132EE005D07B68DB6A43F001027B68DA623B68E9
S1132EF093F82030002B05D07B68DB6A43F0020294
S1132F007B68DA623B6893F82030002B08D13B6879
S1132F101B7E002B04D13B6893F82830002B02D091
S1132F201B20FFF72DFF3B68DB690E4A13603B68EB
S1132F305B6A0D4A13603B68DB6A0C4A1360054BFD
S1132F409B68012B02D1042000F008F900BF203750
S1132F50BD4680BD00600440800616007036000047
S1132F6000007A44D4000020D8000020DC000020B7
S1132F7080B582B000AF78600B46FB70FB781946D1
S1132F807868FFF77BFD124B9B6803F00103002B6D
S1132F9005D1FB78002B02D0042000F0DFF8FB7889
S1132FA083F00103DBB2002B08D0094B9B6803F0CC
S1132FB00103002B02D0042000F0EAF800BF7B6874
S1132FC05B6B002BFBD100BF0837BD4680BD00BF43
S1132FD00060044080B582B000AF244B1A6A234BD2
S1132FE0DB6A13407B60214A7B6893627B6803F051
S1132FF00403002B0ED01D4B1B6A03F00403002BAB
S113300003D0D6211A48FDF783F91A4B1B681846DA
S113301000F042F87B6803F00103002B0ED0134B41
S11330201B6A03F00103002B03D0DA211048FDF7DB
S11330306FF9114B1B68184600F02EF87B6803F0FB
S11330400203002B0ED0094B1B6A03F00203002B72
S113305003D0DE210648FDF75BF9084B1B681846D0
S113306000F01AF800BF0837BD4680BD0060044078
S113307070360000DC000020D4000020D8000020BE
S113308080B400AF034B00221A6000BFBD465DF858
S1133090047B7047E000002080B584B000AF786006
S11330A0FEF7C8F9F860064B1A687B681343044AB4
S11330B01360F868FEF7CEF900BF1037BD4680BD37
S11330C0E000002080B584B000AF7860FEF7B2F96C
S11330D0F8607B68DA43064B1B681340044A1360AC
S11330E0F868FEF7B7F900BF1037BD4680BD00BFD2
S11330F0E000002080B400AF034B1B681846BD46B7
S11331005DF8047B704700BFE000002080B400AF8E
S1133110054B1B69044A23F00403136130BF00BF4D
S1133120BD465DF8047B704700ED00E080B400AF5D
S1133130094B00221A60084B00225A60064B0022F9
S11331409A60054B0022DA60034B00221A6100BF2B
S1133150BD465DF8047B7047E400002080B584B070
S113316000AF7860FEF766F9F860084A7B6852F8A9
S113317023305A1C05497B6841F82320F868FEF780
S113318069F900BF1037BD4680BD00BFE4000020D0
S113319080B584B000AF7860164A7B6852F823305B
S11331A0002B0EDDFEF746F9F860124A7B6852F8F0
S11331B023305A1E0F497B6841F82320F868FEF734
S11331C049F90C4A7B6852F82330002B03DA80213A
S11331D00948FDF79DF8074A7B6852F82330042B11
S11331E003DD81210448FDF793F800BF1037BD4685
S11331F080BD00BFE40000209036000080B582B09E
S113320000AFFEF717F97860144B1B68002B03DD41
S11332107868FEF71FF91DE0104B5B68002B03DD97
S11332207868FEF717F915E00C4B9B68002B02DD5C
S1133230FFF76CFF0AE0094BDB68002B03DD01207C
S1133240FEF7F4FA02E00120FEF738FB7868FEF797
S113325001F900BF0837BD4680BD00BFE40000206F
S113326080B483B000AF00237B600AE00A4A7B6825
S113327052F82330002B01D07B6806E07B680133D1
S11332807B607B68042BF1D9042318460C37BD46B8
S11332905DF8047B704700BFE400002080B400AFF9
S11332A0044BDB6C1B0EDBB21846BD465DF8047B99
S11332B0704700BFB081E00F80B582B000AF194BFA
S11332C001225A64FFF7EAFF0346FB71FB79002BE6
S11332D00CD1154B4AF6E8521A60144B1B68134A7A
S11332E043F004031360104B00221A60FB79012B96
S11332F005D80F4B1B680E4A43F4005313600D4B63
S11333001B6A23F444130B4A43F4881313620A4BD5
S11333101B68094A43F4F843136000BF0837BD46ED
S113332080BD00BF00000E4090310E4098310E4029
S113333064310E4000400E40A4310E40B0B58AB056
S113334000AF2C4B07F118040FCB84E80F002A4B75
S11333503C1D1D460FCD0FC42B682380FFF7ACFF27
S113336000233B7000237B7007F118031846FEF717
S11333706BFE02237B703B461846FEF797FB3B1D12
S11333801846FDF783FD1D48FDF7C4FC0122012109
S11333900320FDF7FDFD05211120FDF79DFA002214
S11333A000210220FDF7F4FDFFF716FCFFF7A2FE53
S11333B00346002B01D1FFF721FFFFF79BFE0346D5
S11333C003F00403002B01D0FFF754FCFFF792FE37
S11333D0034603F00103002B01D0FFF777FCFFF74E
S11333E089FE034603F00203002BDFD0FFF77CFCC9
S11333F0DCE700BFB8360000C83600000048E8012A
S113340008B5074B044613B10021AFF30080054B08
S11334101868836A03B19847204600F031F800BF6A
S113342000000000DC36000070B50D4E0D4CA41BEE
S1133430A4100025A54209D10B4E0C4C00F022F833
S1133440A41BA4100025A54205D170BD56F8253053
S113345098470135EEE756F8253098470135F2E7ED
S11334609800002098000020980000209C00002074
S113347002440346934200D1704703F8011BF9E765
S1133480FEE700BFF8B500BFF8BC08BC9E46704715
S1133490F8B500BFF8BC08BC9E46704700000000A9
S11334A05FF800F071000020633A5C73696C696333
S11334B06F6E6C6162735C73696D706C696369745F
S11334C07973747564696F5C76345C646576656C75
S11334D06F7065725C73646B735C6765636B6F5F5D
S11334E073646B5F73756974655C76322E375C70D8
S11334F06C6174666F726D5C656D6C69625C696E3B
S1133500635C656D5F636F6D6D6F6E2E68000000A8
S1133510633A5C73696C69636F6E6C6162735C734C
S1133520696D706C696369747973747564696F5CCF
S113353076345C646576656C6F7065725C73646B1D
S1133540735C6765636B6F5F73646B5F73756974DA
S1133550655C76322E375C706C6174666F726D5C7C
S1133560656D6C69625C696E635C656D5F636D75E6
S11335702E6800002E2E2F656D6C69622F656D5FBD
S1133580636D752E6300000040787D01000000002B
S1133590005A620200010000C0CF6A00020000006D
S11335A0809FD50002010000002D310102020000BD
S11335B02E2E2F656D6C69622F656D5F656D752E9E
S11335C063000000633A5C73696C69636F6E6C61DD
S11335D062735C73696D706C696369747973747513
S11335E064696F5C76345C646576656C6F70657273
S11335F05C73646B735C6765636B6F5F73646B5F51
S113360073756974655C76322E375C706C617466B0
S11336106F726D5C656D6C69625C696E635C656D2F
S11336205F6770696F2E68002E2E2F656D6C69625E
S11336302F656D5F6770696F2E6300002E2E2F65F6
S11336406D6C69622F656D5F6C6574696D65722E52
S1133650630000002E2E2F7372632F536F757263F5
S1133660655F46696C65732F6170702E630000009E
S11336702E2E2F7372632F536F757263655F4669C5
S11336806C65732F6C6574696D65722E6300000040
S11336902E2E2F7372632F536F757263655F4669A5
S11336A06C65732F736C6565705F726F7574696E8A
S11336B065732E63000000000002080705000A007D
S11336C0C8000000FFFF010001000000A000680125
S11336D00A200706020A0407000000001000002068
S10736E000000000E2
S10B36E468CAFF7F0100000029
S11336EC005A620200800000C0EA2101C0EA2101F4
S11336FC00000000000000000000000000000000BA
S113370C00000000000000000000000000000000A9
S113371C0000000000000000000000000000000099
S113372C0000000000000000000000000000000089
S113373C0000000000000000000000000000000079
S113374C0000000000000000000000000000000069
S113375C80B483B000AF074B1B6843F000437B601D
S113376C30BF044A7B68136000BF0C37BD465DF85C
S113377C047B70474C310E40310100000D010000F8
S90301C13A
