:1000000000000420C1010000ED010000ED0100002E
:10001000ED010000ED010000ED010000ED01000028
:10002000ED010000ED010000ED010000ED01000018
:10003000ED010000EC010000ED010000ED01000009
:10004000ED010000ED010000ED010000ED010000F8
:10005000ED010000ED010000ED010000ED010000E8
:10006000ED010000ED010000ED010000ED010000D8
:10007000ED010000ED010000ED010000ED010000C8
:10008000ED010000212B0000ED010000ED0100005A
:10009000ED010000ED010000F52E0000ED01000073
:1000A000ED010000ED010000ED0100006D2D0000EC
:1000B000ED010000ED010000ED010000ED01000088
:1000C000ED010000ED010000ED010000ED01000078
:1000D000ED010000ED010000ED010000ED01000068
:1000E000ED010000ED0100007D2B0000ED0100009E
:1000F000ED010000ED010000ED010000ED01000048
:10010000ED010000ED010000ED01000010B5054C0F
:10011000237833B9044B13B10448AFF300800123B3
:10012000237010BD0002002000000000B87D000018
:1001300008B5034B1BB103490348AFF3008008BD6A
:100140000000000004020020B87D0000154B002BC9
:1001500008BF134B9D46A3F5803A00218B460F46FE
:100160001348144A121A03F01EFD0F4B002B00D047
:1001700098470E4B002B00D0984700200021040028
:100180000D000D48002802D00C48AFF3008003F0AA
:10019000DBFC2000290002F0E3FF03F0C1FC00BFFC
:1001A0000000080000000420000000000000000023
:1001B00000020020F4020020000000000000000007
:1001C000064880470649074A074B9A42BEBF51F886
:1001D000040B42F8040BF8E7FFF7B8FF81020000B8
:1001E000C47D00000000002000020020FEE700BFE8
:1001F00000487047005A6202114BD3F8943003F064
:100200000703023B032B18D8DFE803F00D0214109C
:100210004FF400400A4BD3F80031C3F304230133F9
:10022000B0FBF3F07047074B1868F3E7064B18680C
:100230004008EFE7054B1868ECE7034B1868E9E75F
:1002400000400E4004000020080000200C000020A8
:1002500008B5FFF7D1FF054B054AD3F80831C3F3C2
:1002600008230133B0FBF3F0106008BD00400E40DE
:1002700000000020014B1868704700BF04000020F8
:10028000044B054A9A60D3F8882042F47002C3F800
:100290008820704700ED00E0000000004FF40040AF
:1002A000704700BF4FF47A70704700BF014B186869
:1002B000704700BF0C000020FEE700BF224B9842B1
:1002C0003AD01AD9214B98423AD00CD8204B9842B8
:1002D00025D003F5371303F5D86398422AD11D4B77
:1002E000D3F8A00070471C4B984214D01B4B984287
:1002F00020D1184BD3F8B0007047194B984215D055
:1003000011D9184B984211D0174B984212D1114B6A
:10031000D3F88C0070470F4BD3F8AC0070470D4BEF
:10032000D3F89C007047114B984203D1094BD3F886
:100330008000704700207047064BD3F89800704744
:10034000044BD3F8A8007047405DC60080BA8C010A
:100350000024F400B081E00F0048E80180D543029A
:1003600080841E0000093D00C0CF6A0040420F009B
:1003700010B5C9B20024134B134A5B688C42234664
:1003800008D00133052B02F1080213D012F8084CF3
:100390008C42F6D152F80C4C8442F2D30B4A02EB59
:1003A000C3035B791A0607494B6823F04073134374
:1003B0004B6010BD40F653610548FFF77DFF4FF0DD
:1003C0004072F0E700000E4000790000F478000071
:1003D000E078000038B5074C41F67133256C236492
:1003E000FFF706FF0021FFF7C3FF0DB100232364D1
:1003F00038BD00BF00000E4038B5054C41F67133E2
:10040000256C2364FFF7B4FF0DB10023236438BDCE
:1004100000000E4030B4C0F30323013B092B43D846
:10042000DFE803F00D1542422F3D1D423705214CF8
:10043000C0F304302044800030BC016070471E4C83
:10044000C0F304302044800030BC016070471B4C76
:10045000C0F304302044800030BC01607047184C69
:10046000C0F304301025174BD3F84421D207E1D450
:10047000D3F840212A42FBD12044800030BC0160E7
:100480007047114CC0F304302044800030BC016040
:100490007047C0F304300D4C4FF48035E3E7C0F3F0
:1004A00004300B4C0125DEE741F2F231094830BC43
:1004B000FFF702BF800AF2100000F2100006F210EF
:1004C0004007F21000400E408005F2108007F21045
:1004D0000007F210E078000008B5C0F30313013BF9
:1004E000092B53D8DFE803F00E20261452521A309D
:1004F0003F053D4B984270D13C4BD3F8300100F0A2
:10050000030008BD394BD3F80001C0F3042008BD37
:10051000364BD3F80C01C0F3082008BD334BD3F899
:100520000801C0F3082008BD304BD3F81401C0F314
:10053000042008BD2D4BD3F80001C0F30060431C1C
:1005400001209840013808BD294B98423CD0294BE6
:10055000984229D1254BD3F820310120C3F3011350
:100560009840013808BD244B984224D003F5B013BD
:1005700003F58053984210D11C4BD3F82801C0F3E7
:100580000120031D01209840013808BD41F2EE51C1
:100590001A48FFF791FE002008BD41F2BA511748F2
:1005A000FFF78AFE002008BD41F296511348FFF77D
:1005B00083FE002008BD0D4BD3F828310120C3F382
:1005C00001139840013808BD084BD3F820310120B1
:1005D00003F00F039840013808BD41F2C9510748A4
:1005E000FFF76AFE002008BDA009140000400E407D
:1005F0008006160080162E0090171A00E078000082
:1006000008B500F00F00013807284AD8DFE800F0ED
:10061000121F2D49394149042F4BD3F85C3103F0A7
:100620003003202B4AD0302B52D0102B0CBF072088
:10063000012008BD284BD3F8943003F00703023B98
:10064000052B43D8DFE803F03A383640423E224BD0
:10065000D3F8800000F007000228EAD0042827D051
:1006600001280CBF0320012008BD1B4BD3F88430A8
:1006700003F00703013B032B2CD8DFE803F01D1B1D
:100680002119154BD3F8880000F007000228E5D1A6
:1006900008BD114B1B6F13F0010F14BF0920072079
:1006A00008BD41F642110D48FFF706FE002008BDC7
:1006B0000A2008BD022008BD032008BD042008BD93
:1006C000062008BD0C2008BD0B2008BD052008BD74
:1006D000082008BD012008BD00400E40E078000061
:1006E00038B52E4B984205460AD02D4B984207D07C
:1006F0002C4B984204D040F653712B48FFF7DCFD99
:100700002846FFF77DFF254B9D42044625D0244B0C
:100710009D421CD0234B9D4213D040F6827122484B
:10072000FFF7CAFD042C04D8DFE804F009332F21B9
:100730001D0040F6D4711C48FFF7BEFD0024204682
:1007400038BD1A4BD3F8804004F00704EAE7174B92
:10075000D3F8884004F00704E4E7144BD3F884404E
:1007600004F00704DEE7BDE83840FFF79BBDFFF764
:1007700043FD0E4BD3F80041C4F30064631C012415
:100780009C40B0FBF4F4204638BDBDE83840FFF78C
:100790008DBDBDE83840FFF781BD00BF03002000DC
:1007A0000500240002001E00E078000000400E401A
:1007B00038B500F47813B3F5B01F00F097801AD95C
:1007C000B3F5101F00F09F804CD9B3F5401F2AD01D
:1007D0007FD9B3F5481F00F09B80B3F5781F4AD14D
:1007E0000546FFF709FD04462846FFF775FE013070
:1007F000B4FBF0F038BDB3F5202F58D04FD9B3F586
:10080000602F1ED057D9B3F5801F28D0B3F5A01F95
:1008100031D16848FFF764FF674BD3F8303103F0FC
:100820000303D84038BD6548FFF75AFF624BD3F841
:100830002831C3F301231A1D01239340B0FBF3F0C9
:1008400038BD5F48FFF7DCFE072808D009282ED006
:1008500040F615515B48FFF72FFD002038BD5A4B7D
:10086000186838BDB3F5F01F71D0B3F5001F69D01B
:10087000B3F5D01F06D041F222515248FFF71CFDBC
:10088000002038BD4D48FFF72BFF4B4BD3F82821F4
:100890000123C2F301129340B0FBF3F038BDB3F56E
:1008A000003F64D0B3F5802F56D0002BE3D1BDE8D4
:1008B0003840FFF7A1BCB3F5402FDCD1FFF79CFC1B
:1008C0003D4BD3F81431C3F304230133B0FBF3F0F1
:1008D00038BDB3F5381FCED13C48FFF701FF364B8A
:1008E000D3F82031C3F30113D84038BD3748FFF7A0
:1008F000F7FE314BD3F82021012302F00F02934081
:10090000B0FBF3F038BD2B48BDE83840FFF7E8BE38
:100910002F48FFF775FE0138072843D801A353F885
:1009200020F000BF85090000A5090000A50900000E
:100930009D090000A5090000A50900005F0800004E
:10094000890900001D48BDE83840FFF7C9BE1F48AF
:10095000BDE83840FFF7C4BEFFF74EFC164BD3F896
:100960000C31C3F308230133B0FBF3F038BDFFF7BC
:1009700043FC114BD3F80831C3F308230133B0FB18
:10098000F3F038BD002038BDFFF736FC0A4BD3F832
:100990000031C3F3042303FB000038BDBDE8384039
:1009A000FFF768BC40F64C510648FFF785FC002075
:1009B00038BD00BF0500240000400E4003002000A9
:1009C00006000E00E07800001000002002001E006B
:1009D000B80032002DE9F8430546FFF76FFC431ECF
:1009E0000333064671D8DFF8CC811120D8F80070A7
:1009F000C8F80050FFF704FE052800F08180614B25
:100A00001C68002CFCD1721C74D05F4B9D426CD0D2
:100A10005E4B9D425FD05E4B9D4220D01120FFF780
:100A2000EFFD052824D15B4B9D425BD95A4901203B
:100A30008D428CBF4FF000714FF08071574B584A78
:100A40001860D2F8003123F080730B43BD42C2F826
:100A500000310FD90121284600F0A4FE0AE026F05B
:100A6000C06646F080661120FFF7CAFD052839D020
:100A7000BD42EFD84A4B11201E61FFF7C1FD05288A
:100A800041D0FFF7B9FB434B98421CD9424B01249C
:100A900098428CBF4FF000734FF080733F49404A3B
:100AA0000C60D2F8000120F080701843BD42C2F8FB
:100AB000000103D80121002000F074FE1120BDE8E0
:100AC000F843FFF79DBD0023E8E741F6D3513548D1
:100AD000FFF7F2FB87E71120FFF792FD052826F0CC
:100AE000C066C5D100200146A8E726F0C06646F0E2
:100AF0000076B8E741F6E4512A48FFF7DDFB84E7CA
:100B0000FFF768FC7BE7FFF7A3FB8542064632D37D
:100B1000D8F80030B34226D39D4219D1224B1B682E
:100B20005B061BD5214BDFF890805968D8F84090C0
:100B300041F671333046C1F30141C8F84030FFF748
:100B400017FCB9F1000F9CD00023C8F8403098E79B
:100B500041F612611348FFF7AFFBDFE7144A136851
:100B6000002BFCD1DEE741F611610E48FFF7A4FB34
:100B7000D8F80030D0E741F610610A48FFF79CFB37
:100B8000C6E700BF6028C84380841E0000093D00FE
:100B900040420F000048E8010090D0034000C843E5
:100BA00000400E40E07800003C300E4000300E4027
:100BB000C800C6430800002000000E4010B50138F0
:100BC0000C4603284ED8DFE800F0203211027F29BE
:100BD00061D8344A04F07F041368002BFCD1324AF8
:100BE000936923F07F031C43946110BD7F294CD887
:100BF0002E4A04F07F041368002BFCD12A4A1369A3
:100C000023F07F031C43146110BDB1F5007F36D281
:100C1000274AC4F308041368002BFCD1224A136A44
:100C200023F4FF7323F001032343136210BD1E4B13
:100C3000D3F890305B071CD41B491E4B4A6A22F044
:100C4000300242F010024A62086BC4F3C31203324E
:100C500003400F2A44EA030428BF0F2244EA027427
:100C60000C6310BD42F24A111348BDE81040FFF773
:100C700023BB42F230111048FFF71EFBDCE742F2C3
:100C8000F9010D48FFF718FBC2E742F206110A48C6
:100C9000FFF712FBACE742F221110748FFF70CFB0C
:100CA00097E700BF6428C84300400E406028C8434F
:100CB0006828C84300F8FF0FE078000010B502284C
:100CC0000C4604D042F262111348FFF7F5FA134BB9
:100CD0005B6A13F0300F0BD0202C19D0302C07D0CA
:100CE00034B142F27D110C48FFF7E6FA0C4A01E0FC
:100CF0004FF440020949D1F8903032EA0303FAD1A7
:100D000053024ABFD1F8A0000120C0F3802010BDDB
:100D10004FF40002EEE700BFE078000000400E4014
:100D2000FF33E107F0B583B004460E4604287FD8B0
:100D3000DFE800F003595F7953004FF400754FF47A
:100D4000807708234FF0090C96B9012098404A4952
:100D50000D66D1F890300342FBD13AB101224649E9
:100D600002FA0CF2D1F890301342FBD103B0F0BD7F
:100D700042491944890000263F4B1F660B68002B2F
:100D8000FCD0002AF2D03D4D6544AD002B68002B0D
:100D9000FCD0022CEAD1002EE8D0374A516A11F07B
:100DA000010165D04FF480632021C2F8A8302046AD
:100DB0005166FFF783FF304CD4F89C60012200217C
:100DC0000220FFF7AFFFC6F30A010220FFF7F6FE8D
:100DD00027662B68002BFCD0C8E7202510270423AA
:100DE0004FF0050CB0E78025402706234FF0070C95
:100DF000AAE7002937D0204B5B6A13F0300F1FD1D0
:100E00001F4BDB6B580526D51B4B596AC9071DD5EF
:100E1000586A1C4920F0300040F010005862042746
:100E20004FF0030CA8E70127BC46022500238BE7FF
:100E3000154842F2470103B0BDE8F040FFF73CBA65
:100E4000104904274FF0030C002695E70D490427AD
:100E50004FF0030C90E742F256010B480192FFF766
:100E60002BFA019AD0E7042008254FF0030C6EE717
:100E70002046FFF723FF9EE700400E408004F2105B
:100E800000300E400812C843E0780000F8B5112881
:100E90000C460AD000F00F000138072863D8DFE8BD
:100EA00000F0093F43621B286231042900F0928060
:100EB00005293BD00025023C0A2C00F22A81DFE8FC
:100EC00014F0FB00FE00080115012801280128018B
:100ED00028010101B400F90006299A4D57D0013CC0
:100EE000092C47D8DFE804F03D362F4646584646E1
:100EF000462C072900F01781092972D1924B012253
:100F00001A67F8BD4C1E072C00F2FC80DFE814F0D5
:100F10008B00FA00FA008400FA00FA007D007300EA
:100F200006292ED0894DDAE7894DD8E7894A8A4BC0
:100F300015689D42BED90021284600F033FCBAE76F
:100F400004232B60F8BD012211461046FFF7EAFE8C
:100F50000123F6E7012211460020FFF7E3FE0223FA
:100F6000EFE70023EDE741F641417C48BDE8F8405A
:100F7000FFF7A2B941F682217848BDE8F840FFF7B3
:100F80009BB941F647217548704DFFF795F97348B5
:100F900041F65721FFF790F9FFF72EF9704B984271
:100FA00026D9704B012498428CBF4FF000734FF04C
:100FB00080736D49644A0C60D2F8000101F5AE51AE
:100FC000083120F0807018430124C2F80001032387
:100FD0000C60B6E7FFF74EF9054600283FF46AAF0C
:100FE000A9E741F60C315D48BDE8F840FFF764B968
:100FF00000231C46DDE73021534AD2F85C3123F050
:1010000030030B43C2F85C31F8BD012211460420C5
:10101000FFF788FE1021EFE7012211460220FFF7BB
:1010200081FE2021E8E70021E6E7032005240122D4
:101030001146FFF777FEFFF7CDF91DB14B4B1B684B
:101040005A0679D5404B5C67FFF702F90646FFF771
:10105000D3F8434B984263D9424B012498428CBF4A
:101060004FF000734FF080733F49374A0C60D2F85D
:1010700000013E4920F080701843C2F800010B685F
:101080005B0654D53A4B3B4C5968276C41F671339B
:101090003046C1F301412364FFF76AF90FB1002321
:1010A0002364002D7FF42DAF28460121BDE8F840D0
:1010B00000F078BB0724BEE700200424B7E7012036
:1010C0000324B4E741F603212448BDE8F840FFF7C4
:1010D000F3B8254B1C4A01211960D2F800310220D7
:1010E00043F08073C2F800310446A0E71E4B164A55
:1010F00001241C60D2F8003143F08073C2F8003143
:10110000032094E741F66A311448BDE8F840FFF740
:10111000D3B841F608211148BDE8F840FFF7CCB834
:1011200000231C46A0E7084B00221A67F8BD124AAC
:101130001368002BFCD1A5E70F4A1368002BFCD1E4
:1011400080E700BF88400E4000400E4080400E40C7
:1011500084400E4008000020002D3101E07800009E
:101160000048E8010090D0034000C8433C300E40E6
:1011700000300E4000000E40C800C64338B504469B
:101180001120FFF73DFA04284DD001220021022052
:10119000FFF7C8FD637813B9A378002B36D041F66A
:1011A0002F712448FFF788F8217C012934D0224A86
:1011B0002248536A257823F00103022908BF43F02F
:1011C000010353620560A388617AE58841EAC3217F
:1011D000D162136B207AA17A03F07F630B43C11CA9
:1011E00043EAC5230F2943EAC01328BF0F2143EA6E
:1011F00001731363A37B657BE07B217B1B0143EAC7
:101200000533034343EA0143536338BDE378002BBE
:10121000C5D1217C0129CAD141F634710548FFF7B7
:101220004BF8217CC3E741F6F1610248FFF744F82F
:10123000ABE700BFE078000000400E40A004C843C8
:10124000EFF3108072B6704700B962B6704700BF06
:1012500038B542EA032340F20112934205460C4698
:1012600060D0B3F5817F14D340F20122934250D075
:1012700030D9B3F5407F24D040F2013293423ED1C1
:101280002D4BD3F878311A0EC3F307432B6022603D
:1012900038BD012B2AD00BD3B3F5807F2FD1264B3D
:1012A000D3F86C311A0EC3F307432B60226038BDAC
:1012B000214BD3F86C31C3F30722DBB22B602260E1
:1012C00038BD1D4BD3F870311A0EC3F307432B60A2
:1012D000226038BDB3F5007F11D1174BD3F87031C0
:1012E000C3F30722DBB22B60226038BD124BD3F868
:1012F0007431C3F30722DBB22B60226038BD40F6A5
:1013000004110E48FEF7D8FF002213462B6022601E
:1013100038BD094BD3F87831C3F30722DBB22B6019
:10132000226038BD044BD3F874311A0EC3F307435F
:101330002B60226038BD00BFB081E00F1C79000037
:10134000044B1B69C3F30443082B02D1024B034A2D
:101350001A60704700400E4008000020C0EA2101DA
:1013600010B51C4B02280C46D3F8803120D003283E
:101370001CD0012814BFDBB2C3F307231B0323F4E3
:10138000704244B9BAB91449CA6E22F47042134388
:10139000CB66012010BDAAB90F49D1F8EC2022F488
:1013A00070421343C1F8EC30012010BD1B0EE5E77D
:1013B000C3F30743E2E740F693010848FEF77CFFDA
:1013C000204610BD40F69F010448FEF775FF00203F
:1013D00010BD00BFB081E00F00300E401C7900004E
:1013E0000E4B1A6852060FD41B685B0611D50C4BC6
:1013F00019685A68C1F30121C2F3014291421A6887
:1014000003D822F010021A60704742F010021A60EE
:101410007047044A1368002BFCD1E8E73C300E40CB
:1014200000300E40C800C64308B50F4A0F4BD2F833
:1014300090201A601120FFF7E3F80D4B0D4A1B684E
:1014400010705B060AD50C4B0C485B6806490C4AC9
:10145000C3F3014303700B69136008BD094A1368A5
:10146000002BFCD1EFE700BF00400E401C02002023
:101470003C300E402602002000300E402D0200209D
:1014800028020020C800C64370B52E4B1B685B06BF
:1014900007D42D4B2D491A781023C2F10202934034
:1014A0000B612B4B2B4DD3F88041264945F60E029C
:1014B000C3F88021286840F2551202401A660B6872
:1014C0005E0604F0010426D5204B1B68D80617D50C
:1014D0001F4AD2F84031D901FBD41F4E1F4B31783F
:1014E0001B68136105291BD01120FFF7CFFC2B6867
:1014F000DB070CD51CB1164B0022C3F8802170BD50
:10150000154E31780529EFD12B68DB07F2D4104B4B
:1015100002221A66EEE7124A1368002BFCD1D3E7C9
:10152000084B104A1B6810685A0606D5074B5968C5
:10153000C1F30141FEF760FFE3E7094A1368002B9E
:10154000FCD1F3E73C300E402D02002000300E406D
:1015500000400E401C02002026020020280200202D
:10156000C800C64308000020704700BF704700BF96
:1015700010B5044678BBFFF733FF184A136943F0F0
:1015800004031361FFF7F0FF154B1B68DA061BD449
:1015900030BFFFF7EBFF7CB9114B1B68DB0608D4AB
:1015A000104A136823F000431360BDE81040FEF7B3
:1015B0004FBEFFF7C5FEF3E7FFF766FF094A136862
:1015C00023F00043136010BDFFF73AFE06F084F9E4
:1015D000FFF73AFEDDE7FFF727FFCCE700ED00E07D
:1015E00000300E404C310E4010B5044600283ED16C
:1015F000FFF7F6FE1F4BD3F880214FF4207145F61C
:101600000E00C3F880011966D10744BF0022C3F859
:101610008021194A136943F004031361FFF7A4FF03
:10162000164B1B68DA061BD430BFFFF79FFF7CB94F
:10163000124B1B68DB0608D4114A136823F00043E1
:101640001360BDE81040FEF703BEFFF779FEF3E735
:10165000FFF71AFF0A4A136823F00043136010BD16
:10166000FFF7EEFD06F038F9FFF7EEFDDDE7FFF7D7
:10167000DBFEBDE700400E4000ED00E000300E4014
:101680004C310E402DE9F843294B1A68550632D4E7
:101690001B685C0631D5274E7368C3F3014398423B
:1016A00029D0254B0446D3F800810D46FEF7A4FD52
:1016B000C4F102071023022C814603FA07F70CD06D
:1016C00037611DB11A4B1B685A0625D59CB92146B6
:1016D0004846BDE8F843FEF78FBEC8F30428174B11
:1016E00008FB000898451CD802214846FEF784FEF6
:1016F000104B1F6165B9BDE8F883114A1368002BD0
:10170000FCD10C4E7368C3F301439842C9D1F2E790
:10171000074B1B685B06EED4094A1368002BFCD10B
:10172000D4E740F2E1510748FEF7C6FDDCE700BF11
:101730003C300E4000300E4000400E40002D310184
:10174000C800C6431C79000040B1134B1B7813B18D
:10175000124B98421BD90020FFF794BF10B582B0FE
:101760000F4B0191D3F80041FEF746FD0A4B01995A
:101770001B78C4F3042404FB000013B1074B984208
:1017800008D9002002B0BDE81040FFF77BBF02205F
:10179000FFF778BF0220F5E72C020020002D310171
:1017A00000400E40034B1B685B0601D4FFF7CCBF23
:1017B000704700BF3C300E40094942780B6823F463
:1017C000407343EA0223022A0B6000D07047054BA6
:1017D0005B6A9B00FAD540F21D610348FEF76CBDC1
:1017E00000300E4000400E401C79000010B4244A26
:1017F0004AF6E853546B5363936FDB07FCD4136CC6
:1018000013F0030322D01F4A0121834211601AD032
:10181000032B02D1431E012B1FD9194A936FDB07FB
:10182000FCD4136C164923F00303034313648B6F3A
:1018300013F00103FBD10030124A18BF0120012C24
:10184000106000D14B635DF8044B70470028E1D174
:101850000C4B5DF8044B18607047094A4FF40023A5
:10186000D362936FD907FCD4136C054923F00303AB
:1018700043F0010313644B6A1A03FCD5CDE700BFA4
:1018800000300E40B40AC6432DE9F04F89B004463B
:10189000A0F5E1600025B0F5966F0191CDE9025504
:1018A000CDE90455CDE9065500F284805D4BB4F5D1
:1018B000E16F9346D3F868318CBF4FF001084FF0C9
:1018C000000863D1C3F30722DBB2079204934FF4FD
:1018D00016794FF4966A544FFD6CC5F3017505A94E
:1018E00002A82B464246FFF7B3FCD7F8EC60C6F3DC
:1018F00001264246334606A903A8FFF7A9FC049A2D
:101900000798A4EB0A01831A01FB03F3B3FBF9F375
:10191000D3182CBF01220022984241D3002A3FD184
:101920000698DDF80C80A0EB080201FB02F2B2FB86
:10193000F9F218EB02082CBF0122002240452FD3F8
:1019400072BB059A0298A2EB000C01FB0CF1B1FBF3
:10195000F9F910EB09092CBF012100214A451FD3D9
:10196000F1B9BBF1000F0DD0FA6D22F4FE4222F066
:10197000020242EA0323B4F5E16F2B4A18BF43F099
:101980000203D365019BF3B901250FE01A0EC3F3DF
:101990000743079204934FF496694FF4E16A9AE77C
:1019A00040F68D212148FEF787FC0025284609B026
:1019B000BDE8F08F40F63F211C48FEF77DFC28462D
:1019C00009B0BDE8F08F28460021FFF7C9FC0546A5
:1019D000E0B130460121FFF7C3FC0546E0B1124AF1
:1019E000536EC14538BFC14623F4FF73B9F1E70F09
:1019F00023F0010328BF4FF0E709B4F5E16F18BFEA
:101A000043F0010343EA49035366CFE740F69C21C4
:101A10000648FEF751FCC9E740F6A4210348FEF74B
:101A20004BFCC3E7B081E00F00300E401C79000092
:101A300038B53B4B1A6FD96CCC0702F007020BD5B7
:101A4000012A55D9132850D9143813288CBF4FF4C4
:101A50007F414FF4EE410CE0D96CCD073FD4012A11
:101A600053D9DB6C2F4840F6E221FEF725FC6FF0DE
:101A7000FF012B482C4AC36C2C4C23F47F430B43AF
:101A8000C364C16C1388C26CC1F3032101312833D4
:101A900001EB810503EB5303B3FBF5F3013B072B8C
:101AA00022F0EE6228BF072342F4801242EA036369
:101AB000B4F90020C364002A10DB036D4C082832FF
:101AC00004EB410102EB520223F07004B2FBF1F38C
:101AD000072B28BF072344EA0313036538BDDB6CDB
:101AE000DC07BFD5012ABDD808E04FF44C51C0E750
:101AF000DA6CD20709D5DB6CDB07B3D527288CBF9E
:101B00004FF47F414FF4EE41B3E70928EDD90A388D
:101B100009288CBF4FF47F414FF4EE41A9E700BF85
:101B200000300E401C790000220200202402002018
:101B300010B50B4B1B68044633B9012804D940F695
:101B400001310848FEF7B8FB074B084A186F20F030
:101B5000070020431867BDE810401088FFF768BFF2
:101B60008009C6431C79000000300E40200200208E
:101B700070B56B4B02229A639B6B03F00F03934289
:101B800022D10389C82B044600F28780A2889A429A
:101B900000F28D80B4F90C30C82B00F3928063788A
:101BA000012B6DD0022B00F0B180E38842F210725D
:101BB000934200F2A4804A2B0ED9B3F5FA7F80F04D
:101BC0008A804FF0805008E040F6A6115548002565
:101BD000FEF772FB284670BD00205149B4F90C6035
:101BE000CB6C514D514A23F0405323F00103002E9A
:101BF000A8BF43F001030343CB64D1F8EC30A088C5
:101C000043F44073C1F8EC30CB6E288043F080730E
:101C1000CB66106800282FD1FFF78AFF444B454957
:101C20002589B4F90C20A0881A800D80FFF700FFE9
:101C3000A37B002B5FD0012B2BD040F64401394809
:101C4000FEF73AFB012211466088FFF71DFE0546AC
:101C5000002849D0324A6078D36B43F48063D36361
:101C6000FFF7C4FDA37A344AA3F12003B3FA83F348
:101C70005B091360284670BD0420FFF759FFCDE7CC
:101C8000A388C82B91D940F6B6112648FEF714FB5D
:101C90008BE7234B294A9A65D4E74FF41B6121480F
:101CA000FEF70AFB2389A2889A427FF673AF40F6BB
:101CB000B1111C48FEF700FBB4F90C30C82B7FF7BC
:101CC0006EAF40F6B2111748FEF7F6FA6378012BB3
:101CD0007FF468AFD4E740F6C31083428CBF4FF067
:101CE00040504FF0005078E740F6FA110D48FEF7EB
:101CF000E3FA284670BD0A4B114A9A65A2E740F6FE
:101D0000C3110848FEF7D8FAE38854E7A3880A2BE2
:101D10007FF64BAF40F6BB110248FEF7CDFA44E721
:101D200000300E401C790000200200208009C643CC
:101D300024020020220200209407C643372110B756
:101D40007740205738B5032804460D461BD9042890
:101D500005D0052817D0A0F10803022B13D9822142
:101D60000B48FEF7A9FA04EB4400000100F18040A3
:101D700000F5204000F1806300F1C0604FF00112D7
:101D80001A60056038BD35F00113E8D1EBE700BFFC
:101D9000307900002DE9F0410D461746984604467B
:101DA000E8B1012800F0B480022800F0F480032894
:101DB00000F0EE80042800F0A580052800F02181C5
:101DC000831F012B40F29E80082800F029810928FA
:101DD00000F031810A2840F09580072301E040F2AD
:101DE000FF332B41DE0740F18D80002F3CD1660090
:101DF000072D25D833191B0103F1804303F5204338
:101E0000A9005A680F20884022EA000207FA01F16F
:101E10000A435A6097B9B8F1000F57D1002C7AD114
:101E200040F2FF332B41DB0740F1B8808D4B344447
:101E300024012344012202FA05F51D60BDE8F0816A
:101E40003119090101F1804101F5204105F180407E
:101E500008388B6880000F22824023EA020307FAC9
:101E600000F018438860D5E7B8F1000F10D0002CBF
:101E700068D140F2FF332B41D80740F195806600CE
:101E8000794B3219120113440122AA401A60AFE7BC
:101E9000002C6CD0012C00F0AB80022C00F0B48040
:101EA000032C00F09680042C00F08480052C00F0B8
:101EB000B980A31F012B7DD9082C00F0C380092C09
:101EC00000F0C7800A2C75D1072352E0002C57D0B0
:101ED000012C00F09080022C00F09C80032C7ED01E
:101EE000042C6DD0052C00F0A380A31F012B67D913
:101EF000082C00F0A580092C00F0AE800A2C5FD1E0
:101F000007233FE040F21B115848FEF7D5F96CE774
:101F10004FF6C07365E7012C64D0022C6ED0032C01
:101F200054D0042C3AD0052C77D0A31F012B35D9DF
:101F3000082C00F08380092C00F088800A2C2DD119
:101F400007236FE7012C50D0022C60D0032C43D024
:101F5000042C29D0052C68D0A31F012B24D9082CD0
:101F600072D0092C7BD00A2C1ED1072383E740F2C4
:101F7000FF332B41D9071DD566003219394B81E754
:101F800040F2FF332B41DA071AD53444364B4FE782
:101F90004FF47F4325E740F6FF7322E74FF4777154
:101FA0003348FEF789F941E740F20B413048FEF72C
:101FB00083F964E74FF477712D48FEF77DF9DBE78D
:101FC00040F20B412A48FEF777F9DEE74FF47F43F2
:101FD00028E74FF47F43CCE74FF47F434BE74FF4C0
:101FE0007F43CFE74FF6C0731CE74FF6C07342E75D
:101FF0004FF6C073BDE74FF6C073C3E740F6FF73FB
:1020000010E74FF6FF73ECE640F6FF73B1E740F6DA
:10201000FF7330E740F6FF73B4E74FF6FF7301E755
:102020000F23DEE64FF6FF73A3E74FF6FF7322E7B9
:102030004FF6FF73A6E74FF44043D2E60F23F1E6D5
:102040000F239FE70F2394E70F2314E74FF4404338
:10205000E8E64FF440438CE74FF4404392E74FF4F7
:10206000404308E70CA000440CA000463079000073
:1020700044790000002A54D0F8B50F46016805469F
:1020800003F0030621F4407100F1C063144600F12F
:102090008062296030024FF440711160186057B9B6
:1020A0002F4B9D4256D02F4B9D4243D04FF49771FA
:1020B0002D48FEF701F92B689A071ED5032E35D15E
:1020C00040F263112848FEF7F7F8284B9B5D04FBAC
:1020D00003F3FBB16FEAC4041C443C44B4FBF3F4C7
:1020E000013C2CD4B4F5007F2ED22B689B0702D57F
:1020F000002C08BF01242C61F8BD032EE0D01C4B3E
:1021000053F826309F42DBD9184B9B5D04FB03F349
:10211000002BDFD14FF4BA711348BDE8F840FEF749
:10212000CBB84FF48A711048FEF7C6B8114B53F87C
:102130002630E7E71048FEF73BFB0746BBE74FF4C6
:10214000BD710948FEF7B8F840F27B110648FEF76A
:10215000B3F8CAE70948FEF72BFB0746ABE700BF19
:1021600000C0004000C40040C0790000D4790000E5
:10217000B4790000A87900000092040000820400F5
:1021800038B5094B984204460D4608D003F58063E4
:10219000984204D04FF4CA710448FEF78DF804F158
:1021A00004746401256038BD00C00040C07900009F
:1021B00070B5124B984204460D4608D003F5806373
:1021C000984204D040F2A9110D48FEF775F86978DD
:1021D0000C482B7B620102F18442002681F0010150
:1021E0002664E0635160D5E901122046FFF742FF03
:1021F00029782046BDE87040FFF7C2BF00C000400C
:10220000C0790000FFFF070038B50A4B984204462A
:102210000D4604D04FF489710748FEF74DF8636B03
:102220009B07FCD415B90223636038BD01236360AA
:1022300038BD00BF00600440D879000070B5234B62
:10224000984205460C4604D040F26F112048FEF734
:1022500033F8217811B9AB68DE0728D46278A0780A
:10226000E368002A14BF4FF48052002228BB4BBB06
:10227000E3780BB142F4807223790BB142F0400253
:1022800063790BB142F08002E379A679207A1B01D1
:1022900043EA8603034313432B6039B1AB68DA0783
:1022A00004D46B6B9B07FCD401236B6070BD6B6B1C
:1022B0009807FCD402236B60D0E742F40072002B35
:1022C000D6D001E042F400722B61D1E700600440F7
:1022D000D879000070B505460C4616462AB36CB98D
:1022E000184B9D4206D040F22B111748BDE87040B4
:1022F000FDF7E2BF1548FEF75BFA04466401144B94
:10230000B4FBF6F4203CE4009C4214D82B6C104A39
:10231000D90702EA040201D5EA6070BD6B6C5B0765
:10232000FAD56B6C5B07F9D4F6E740F20311064867
:10233000FDF7C2FFD3E74FF49C710348FDF7BCFFE4
:10234000E4E700BF00A00440F079000090171A00F5
:10235000F8FF010038B50C4B984204460D4604D0F6
:102360004FF4AE710948FDF7A7FFE943236C49001C
:1023700001F00A01DA0741EA050102D4636C9B0708
:10238000FCD4616038BD00BF00A00440F0790000BB
:1023900070B5154B984204460E4604D040F2BD116C
:1023A0001248FDF789FF236CDA0702D4636C9B07A0
:1023B000FCD40A236360656C002DFCD101232364E7
:1023C000707B337BB17B2268034322F01C020B43FA
:1023D00013432360D6E901122046FFF77BFF3378D1
:1023E0006360256470BD00BF00A00440F079000068
:1023F00010B50E4B9842044604D040F2E3110C484D
:10240000FDF75AFF636C002BFCD10120EA2140F25A
:10241000F972206461602360E36023616361A363F8
:102420006263E3636365A365236410BD00A0044099
:10243000F079000030B589B0002301934FF4706249
:1024400001230A4D0A4802950F2469468DF80C3085
:102450008DF800308DF801308DF814308DF81C3077
:102460000494069200F0A8FA09B030BDDDFB050027
:1024700000C0004000B585B0064A02900023CDE9B7
:10248000003240210123F322034800F01FFB05B076
:102490005DF804FB3002002000C000400000000096
:1024A00008B5174B186801F05FF80FA3D3E90023B4
:1024B00001F0D4F80022134B01F0D0F80CA3D3E9BB
:1024C000002300F013FF01F0DBFA01F06FF80AA31C
:1024D000D3E9002301F0C2F800220B4B00F008FF03
:1024E00001F0CEFA08BD00BFD7A3703D0AF76540E2
:1024F000CDCCCCCCCC6C4740CDCCCCCCCCCCFC3FE8
:10250000300200200000F03E0000404030B58DB0A9
:1025100000F0EAF800F00EF900F08CFD00F0B4FDD8
:10252000FFF788FF164B0493164C059400231C21DB
:1025300001228DF800308DF801308DF80C308DF8C7
:102540000D308DF818308DF8203001910423694644
:102550000D488DF828204FF4E055022407920B9384
:102560000295099400F062FB032000F097FD4021E2
:10257000202000F083F8102000F062FD0DB030BD87
:10258000CDCC2C409A99193E0060044008B500F06B
:1025900075FD430703D486210548FDF78DFE042011
:1025A00000F05CFD0820BDE80840FFF763BF00BFF6
:1025B000187A000008B5012000F050FD9B21024868
:1025C000BDE80840FDF778BE187A000008B5022083
:1025D00000F044FDAD210248BDE80840FDF76CBEA7
:1025E000187A000000B52DED028B8BB0082000F0AA
:1025F00035FDFFF755FF08EE100A00F0D7FF024641
:102600000B4668460D4902F017F990B1684600F094
:102610005DF8DFED0B7AB4EEE78AF1EE10FAACBFAD
:10262000084B094B20221A600BB0BDEC028B5DF801
:1026300004FBC7210548FDF73FFEE7E7347A0000B9
:102640000000A042FCA00046FCA00044187A000054
:1026500008B5102000F002FD044800F037F8012111
:102660000348BDE8084000F0B9BA00BF087A00008E
:1026700000600440202000F0F1BC00BF70B58CB0B9
:10268000CDE90A104FF416510520002301220091D4
:102690008DF8050012264FF49055022469460A4829
:1026A0008DF804308DF806308DF8073002930596CA
:1026B00007958DF824208DF825200692089400F0C7
:1026C00099FB0CB070BD00BF00A0044010B50446DB
:1026D00002F0DAF821460246BDE81040014800F059
:1026E00083BC00BF00A0044008B501210D48FDF7E0
:1026F00091FE002211460120FEF714FB0122114633
:102700000020FEF70FFB0A210748FEF7BFFB02215E
:102710000648FEF7BBFB01210548BDE80840FDF770
:1027200079BE00BF4041050002001E0003002000EA
:1027300030253E0010B501212048FDF76BFE002139
:102740000520FFF7FFFA0422114600230520FFF7BA
:1027500021FB00210520FFF7F5FA0521084600239B
:102760000422FFF717FB4FF001110120FFF7EAFAEF
:102770000123184604220A21FFF70CFB012308223B
:102780000B210220FFF706FB012308220A21022069
:10279000FFF700FB4FF480310320FFF7D3FA01234A
:1027A00004220A210320FFF7F5FA01231A460B2120
:1027B0000320BDE81040FFF7EDBA00BF00350A0066
:1027C00030B41F4A1378052B34D8DFE803F0090F23
:1027D000151B25034FF4C6711A4830BCFDF76CBDBC
:1027E0004FF4BC71174830BCFDF766BD40F27B1159
:1027F000144830BCFDF760BD4FF4BF71114830BCC8
:10280000FDF75ABD116AD468CB6904201B0223600E
:102810001070486030BC7047136AD068DC6901688A
:10282000214301600825022405215D6011705C6070
:1028300030BC704740F28F11024830BCFDF73CBD00
:1028400034020020487A000030B41E4B1A78052A62
:1028500031D8DFE802F01703220F2B1158681969ED
:102860001A6A41EA400140250120022455601C708B
:102870005060D16230BC70474FF48071124830BC58
:10288000FDF71ABD1A6A98685168012441F04001A9
:1028900051601C70D06230BC7047196A4A680320CE
:1028A00042F040024A60187030BC7047FD21064873
:1028B00030BCFDF701BD40F20311034830BCFDF709
:1028C000FBBC00BF34020020487A0000174A13788E
:1028D000052B26D8DFE803F0080D121B20034FF468
:1028E00096711348FDF7E8BC4FF48E711048FDF760
:1028F000E3BC40F21F110E48FDF7DEBC51681369BE
:10290000126A43EA410301215160D36270474FF4D8
:1029100093710748FDF7D0BC40F229110448FDF738
:10292000CBBC40F22F110248FDF7C6BC3402002098
:10293000487A000038B51E4C2378052B31D8DFE8E3
:1029400003F00D141B222903022000F0B7FB002521
:10295000A069257000F074FB257738BD4FF4A47191
:102960001448BDE83840FDF7A7BC40F24B111148B0
:10297000BDE83840FDF7A0BC4FF4A7710D48BDE895
:102980003840FDF799BC40F251110A48BDE8384083
:10299000FDF792BC4FF4AA710648BDE83840FDF738
:1029A0008BBC40F25D110348BDE83840FDF784BCA4
:1029B00034020020487A000030B585B03C4B984284
:1029C00004460D4669D03B4B98426BD0636B13F0C5
:1029D000010F4FF0010352D1A363636BDA0757D5A0
:1029E0000123E363D5E901022B7869788DF8003083
:1029F0008DF801102B7B01906946204602928DF8DC
:102A00000C30FFF7D5FB287F2A7D2B69A96942EAA4
:102A100040020B436264A364A368DD0704D520234E
:102A20006360A368D807FCD40023226C2249236486
:102A30008023E1636360E368190644BF0323636096
:102A4000636BDB05FCD5636BE36320232264636067
:102A5000636BE363216C236C154A23EA010323644F
:102A6000236C43F4F07394422364144B0BBF4FF474
:102A700000324FF480621A605A6005B030BDE363E3
:102A8000636BDB07AED57F210D48FDF715FCA9E789
:102A90007A210B48FDF710FCA2E701210948FDF758
:102AA000B9FC93E701210848FDF7B4FC8EE700BFAD
:102AB00000C0004000C40040CFFF070000E100E07C
:102AC000487A000000820400009204002DE9F041E1
:102AD00088468168069F11F0FF0F044616461D4682
:102AE00003D0C4210C48FDF7E7FB022000F0D6FA22
:102AF0000A4B089898610122626047EA48011A77F8
:102B00000798D8600022C3E90186C3E904571C6214
:102B1000E1621A70BDE8F081487A000034020020BA
:102B200010B5144B5C6B1A6C1440DC63630614D450
:102B3000A0060FD421060AD4E20507D50D4B5B6B26
:102B4000DB050DD4BDE81040FFF7F4BE10BDFFF764
:102B5000BDFEF1E7FFF734FEECE7FFF775FEE7E7B0
:102B600040F2B1110448FDF7A7FBBDE81040FFF7A4
:102B7000E1BE00BF00C00040487A000010B5144B11
:102B80005C6B1A6C1440DC63630614D4A0060FD48B
:102B900021060AD4E20507D50E4B5B6BDB050DD48D
:102BA000BDE81040FFF7C6BE10BDFFF78FFEF1E78E
:102BB000FFF706FEECE7FFF747FEE7E740F2D31129
:102BC0000548FDF779FBBDE81040FFF7B3BE00BF35
:102BD00000C4004000C00040487A000038B50446F8
:102BE0000D46FFF711FB104B9B68DA0708D4A5B917
:102BF0000D4B9B68DB0709D4636B002BFCD138BD00
:102C0000002DF5D0636B002BF6D1F8E7042000F01F
:102C100055FA636B002BEFD1F1E7042000F03EFA88
:102C2000636B002BE8D1EAE70060044070B584B024
:102C3000464B984204460D4600F083800021204612
:102C4000FFF7CCFF01236360636B002BFCD1A3680B
:102C5000DB076CD502236360636B002BFCD1012181
:102C60002878E3606A788DF80330ADF804308DF889
:102C700008308DF8021003238DF8010069462046C4
:102C80008DF800208DF806308DF80730FFF7D6FA62
:102C9000636B002BFCD1D5E9012395ED047AD5EDCA
:102CA000057ADFED2B6A697B95F8280027EE267AF6
:102CB00067EEA67A1A432B7BBCEEC77AFCEEE77A66
:102CC00043EA4103FF2184ED047AC4ED057AA16152
:102CD000E161072162642364A16218B1E36A43F0F1
:102CE0000403E3622A7E95F82030BAB1E26A42F02A
:102CF0000102E2629BB9174B4FF000621A60164B5B
:102D00001648174AEE696C6AE96A1E600F4B046048
:102D100011609B68012B0FD004B070BD23B1E36A32
:102D200043F00203E362E6E70028E8D0E3E753213B
:102D30000C48FDF7C1FA8DE7042000F0AFF904B0AC
:102D400070BD01210848FDF765FB77E7006004408E
:102D500000007A4400E100E0580200205C020020FC
:102D600060020020647A00008006160010B51C4B3B
:102D70001C6ADA6A144062079C6206D51B6A5B070C
:102D800024D4184B186800F05BF9E00707D5144B02
:102D90001B6AD9071FD4144B186800F051F9A20719
:102DA00009D50F4B1B6A9B0706D4104BBDE810409A
:102DB000186800F045B910BD0D48DE21FDF77CFA1A
:102DC0000A4BBDE81040186800F03AB9D62108480F
:102DD000FDF772FAD5E7DA210548FDF76DFADAE773
:102DE0000060044060020020580200205C020020C5
:102DF000647A000030B585B0394B984204460D46E0
:102E000068D001232361636C002BFCD12369012B63
:102E100003D05F213348FDF74FFA00232361636C31
:102E2000002BFCD1D5E90A102F4A8DF800302B6811
:102E300002931066EB79A868D1652979AA79019087
:102E40008DF80C108DF80D208DF80E30636C002B72
:102E5000FCD12046FFF7CCFA69462046FFF798FAE6
:102E6000636C002BFCD1D5E906032A6A6969024329
:102E70000B436265A365636C002BFCD1C0236360C8
:102E8000636C002BFCD169792046FFF763FA636C11
:102E9000002BFCD1E36A6363636C002BFCD1A36855
:102EA0009807FCD5A368D907FCD5A3689A070CD569
:102EB000A368DB0703D490210A48FDF7FDF90B4B0B
:102EC0004FF480021A6005B030BD8F210548FDF730
:102ED000F3F9EDE701210648FDF79CFA91E700BF01
:102EE00000A00440847A00006402002000E100E0B9
:102EF00090171A0038B5394BDC6A9A6B1440A10759
:102F00005C6310D4E20700D438BD354D95F86530C8
:102F1000012B20D014D3022B36D0B4213148BDE888
:102F20003840FDF7C9B92E4D95F86530012B42D0D8
:102F30000CD3022B3AD1DC212A48FDF7BDF9E1E799
:102F4000A6212848BDE83840FDF7B6B9012385F829
:102F50006530E307D8D5A9212248BDE83840FDF700
:102F6000ABB99A6B294422F00202022085F8650071
:102F70009A63097ADA6A9207FCD599629A6BE0073C
:102F800042F001029A63BFD5032000F097F8AA6DC2
:102F9000286E936B002423F0010385F8644093634B
:102FA0006C6000F04DF885F8654038BDDF210D48B4
:102FB000FDF782F9A6E7D5E90021013A9142AB6D10
:102FC000CFD09A68102AFCD06A180131107A696053
:102FD000DA6A9107FCD59862BBE700BF00A0044005
:102FE00064020020847A00002DE9F04117460E4665
:102FF0008046FEF725F90E4C0546032000F04EF8FA
:103000000023314604F10800012684F8653063602E
:10301000C4F85880276084F8646001F02DFCA36D2B
:10302000022228469A63BDE8F041FEF70DB900BFC1
:1030300064020020014B00221A607047CC0200207D
:1030400010B50446FEF7FCF8034A13682343BDE8B5
:1030500010401360FEF7F8B8CC02002010B504460B
:10306000FEF7EEF8044A136823EA0403BDE81040B3
:103070001360FEF7E9B800BFCC020020014B1868CE
:10308000704700BFCC020020034B0022C3E900229E
:10309000C3E902221A617047D002002010B504462D
:1030A000FEF7CEF8044A52F82430013342F82430B7
:1030B000BDE81040FEF7C8B8D002002038B5114C6A
:1030C00054F82030002B05460ADDFEF7B9F854F815
:1030D0002530013B44F82530FEF7B6F854F825308A
:1030E000002B08DB042B00DC38BD81210648BDE83D
:1030F0003840FDF7E1B880210348FDF7DDF854F8CA
:103100002530EFE7D0020020A47A000010B5FEF7CA
:1031100097F8114B1A68002A0DDC5A68002A0ADC5D
:103120009A68002A04460ADD0C4A136923F0040356
:10313000136130BF2046BDE81040FEF785B8DB685C
:10314000002B4FF0010003DDFEF712FA2046F2E7F4
:10315000FEF74AFA2046EEE7D002002000ED00E03C
:10316000F0B58BB0554C564F94E80F0001AE1034BB
:1031700086E80F000FCC05AD0FC522682A80514BA1
:1031800001227A64DB6C1B0E40F094804E494F485C
:103190004AF6E8520A60026842F0040202600B60DC
:1031A0004B4A136843F4005313604A494A4A0B6A76
:1031B00023F4441343F488130B62136843F4F84375
:1031C00013600024304602258DF800408DF8014040
:1031D000FEF7CEFC68468DF80150FEF7EDFA05A823
:1031E000FDF7CCFF3D48FDF7F5FB0122114603201A
:1031F000FDF798FD05211120FDF748FE22462146E6
:103200002846FDF78FFDFFF781F9FFF737FFC60668
:103210001FD422213248FDF74FF81AE02046FEF76E
:1032200013F8FFF72BFF450723D4FFF727FFC40749
:1032300025D4FFF723FF800727D4FFF71FFF0107DF
:1032400029D4FFF71BFFC2062BD4FFF717FF830615
:103250002DD4FDF7F5FF0446FFF710FF0028DDD160
:10326000FFF754FF2046FDF7EFFFFFF707FF450785
:10327000DBD5FFF78BF9FFF701FFC407D9D5FFF7BF
:1032800099F9FFF7FBFE8007D7D5FFF79FF9FFF706
:10329000F5FE0107D5D5FFF7A5F9FFF7EFFEC2064A
:1032A000D3D5FFF7D5F9FFF7E9FE8306D1D5FFF7B0
:1032B000E1F9CEE7012B7FF478AF71E7CC7A00001B
:1032C00000000E40B081E00F90310E4098310E406A
:1032D00064310E4000400E40A4310E400048E80129
:1032E000F07A000081F0004102E000BF83F000436B
:1032F00030B54FEA41044FEA430594EA050F08BF91
:1033000090EA020F1FBF54EA000C55EA020C7FEA54
:10331000645C7FEA655C00F0E2804FEA5454D4EBD1
:103320005555B8BF6D420CDD2C4480EA020281EA9B
:10333000030382EA000083EA010180EA020281EAD3
:103340000303362D88BF30BD11F0004F4FEA013125
:103350004FF4801C4CEA113102D0404261EB410134
:1033600013F0004F4FEA03334CEA133302D05242BA
:1033700063EB430394EA050F00F0A780A4F1010476
:10338000D5F1200E0DDB02FA0EFC22FA05F28018B0
:1033900041F1000103FA0EF2801843FA05F3594196
:1033A0000EE0A5F120050EF1200E012A03FA0EFC15
:1033B00028BF4CF0020C43FA05F3C01851EBE3713F
:1033C00001F0004507D54FF0000EDCF1000C7EEB5C
:1033D00000006EEB0101B1F5801F1BD3B1F5001F9A
:1033E0000CD349085FEA30004FEA3C0C04F10104B9
:1033F0004FEA445212F5800F80F09A80BCF1004FE2
:1034000008BF5FEA500C50F1000041EB045141EA63
:10341000050130BD5FEA4C0C404141EB010111F464
:10342000801FA4F10104E9D191F0000F04BF01460F
:103430000020B1FA81F308BF2033A3F10B03B3F1ED
:1034400020020CDA0C3208DD02F1140CC2F10C027D
:1034500001FA0CF021FA02F10CE002F11402D8BFDB
:10346000C2F1200C01FA02F120FA0CFCDCBF41EAA7
:103470000C019040E41AA2BF01EB0451294330BD76
:103480006FEA04041F3C1CDA0C340EDC04F1140453
:10349000C4F1200220FA04F001FA02F340EA03002A
:1034A00021FA04F345EA030130BDC4F10C04C4F170
:1034B000200220FA02F001FA04F340EA0300294650
:1034C00030BD21FA04F0294630BD94F0000F83F49A
:1034D000801306BF81F480110134013D4EE77FEA7D
:1034E000645C18BF7FEA655C29D094EA050F08BFC9
:1034F00090EA020F05D054EA000C04BF19461046AA
:1035000030BD91EA030F1EBF0021002030BD5FEAED
:10351000545C05D14000494128BF41F0004130BD15
:1035200014F580043CBF01F5801130BD01F0004569
:1035300045F0FE4141F470014FF0000030BD7FEADC
:10354000645C1ABF194610467FEA655C1CBF0B46D7
:10355000024650EA013406BF52EA033591EA030FEE
:1035600041F4002130BD00BF90F0000F04BF0021E6
:10357000704730B54FF4806404F132044FF0000519
:103580004FF0000150E700BF90F0000F04BF002192
:10359000704730B54FF4806404F1320410F00045F8
:1035A00048BF40424FF000013EE700BF42004FEAF3
:1035B000E2014FEA31014FEA02701FBF12F07F4370
:1035C00093F07F4F81F06051704732F07F4208BF27
:1035D000704793F07F4F04BF41F40021704730B52E
:1035E0004FF4607401F0004521F000411CE700BF7A
:1035F00050EA010208BF704730B54FF000050AE0FD
:1036000050EA010208BF704730B511F0004502D5FD
:10361000404261EB41014FF4806404F132045FEAFF
:10362000915C3FF4D8AE4FF003025FEADC0C18BFA8
:1036300003325FEADC0C18BF033202EBDC02C2F19A
:10364000200300FA03FC20FA02F001FA03FE40EA2C
:103650000E0021FA02F11444BDE600BF70B54FF030
:10366000FF0C4CF4E06C1CEA11541DBF1CEA13550E
:1036700094EA0C0F95EA0C0F00F0DEF82C4481EA76
:10368000030621EA4C5123EA4C5350EA013518BF96
:1036900052EA033541F4801143F4801338D0A0FB83
:1036A00002CE4FF00005E1FB02E506F00042E0FB30
:1036B00003E54FF00006E1FB03569CF0000F18BF36
:1036C0004EF0010EA4F1FF04B6F5007F64F54074DE
:1036D00004D25FEA4E0E6D4146EB060642EAC62171
:1036E00041EA55514FEAC52040EA5E504FEACE2EDE
:1036F000B4F1FD0C88BFBCF5E06F1ED8BEF1004FE1
:1037000008BF5FEA500E50F1000041EB045170BD5C
:1037100006F0004646EA010140EA020081EA0301A0
:10372000B4EB5C04C2BFD4EB0C0541EA045170BD9C
:1037300041F480114FF0000E013C00F3AB8014F116
:10374000360FDEBF002001F0004170BDC4F100045F
:10375000203C35DA0C341BDC04F11404C4F12005E0
:1037600000FA05F320FA04F001FA05F240EA02003B
:1037700001F0004221F0004110EBD37021FA04F671
:1037800042EB06015EEA430E08BF20EAD37070BD2B
:10379000C4F10C04C4F1200500FA04F320FA05F08A
:1037A00001FA04F240EA020001F0004110EBD3708C
:1037B00041F100015EEA430E08BF20EAD37070BDFC
:1037C000C4F1200500FA05F24EEA020E20FA04F3D5
:1037D00001FA05F243EA020321FA04F001F0004184
:1037E00021FA04F220EA020000EBD3705EEA430EF5
:1037F00008BF20EAD37070BD94F0000F0FD101F024
:103800000046400041EB010111F4801F08BF013C5C
:10381000F7D041EA060195F0000F18BF704703F09A
:103820000046520043EB030313F4801F08BF013D21
:10383000F7D043EA0603704794EA0C0F0CEA1355DD
:1038400018BF95EA0C0F0CD050EA410618BF52EA97
:103850004306D1D181EA030101F000414FF000009D
:1038600070BD50EA410606BF1046194652EA4306AB
:1038700019D094EA0C0F02D150EA013613D195EA1F
:103880000C0F05D152EA03361CBF104619460AD167
:1038900081EA030101F0004141F0FE4141F4700171
:1038A0004FF0000070BD41F0FE4141F4780170BD61
:1038B00070B54FF0FF0C4CF4E06C1CEA11541DBFC6
:1038C0001CEA135594EA0C0F95EA0C0F00F0A7F8C8
:1038D000A4EB050481EA030E52EA03354FEA0131F5
:1038E00000F088804FEA03334FF0805545EA131308
:1038F00043EA12634FEA022245EA111545EA1065D0
:103900004FEA00260EF000419D4208BF964244F166
:10391000FD0404F5407402D25B084FEA3202B61A85
:1039200065EB03055B084FEA32024FF480104FF459
:10393000002CB6EB020E75EB030E22BFB61A7546CD
:1039400040EA0C005B084FEA3202B6EB020E75EB60
:10395000030E22BFB61A754640EA5C005B084FEAC8
:103960003202B6EB020E75EB030E22BFB61A754695
:1039700040EA9C005B084FEA3202B6EB020E75EBA0
:10398000030E22BFB61A754640EADC0055EA060E61
:1039900018D04FEA051545EA16754FEA06164FEAA4
:1039A000C30343EA52734FEAC2025FEA1C1CC0D150
:1039B00011F4801F0BD141EA00014FF000004FF0DD
:1039C000004CB6E711F4801F04BF01430020B4F19E
:1039D000FD0C88BFBCF5E06F3FF6AFAEB5EB030C56
:1039E00004BFB6EB020C5FEA500C50F1000041EB53
:1039F000045170BD0EF0004E4EEA113114EB5C0420
:103A0000C2BFD4EB0C0541EA045170BD41F48011F2
:103A10004FF0000E013C90E645EA060E8DE60CEAFA
:103A2000135594EA0C0F08BF95EA0C0F3FF43BAF17
:103A300094EA0C0F0AD150EA01347FF434AF95EACE
:103A40000C0F7FF425AF104619462CE795EA0C0FB2
:103A500006D152EA03353FF4FDAE1046194622E77F
:103A600050EA410618BF52EA43067FF4C5AE50EA59
:103A700041047FF40DAF52EA43057FF4EBAE12E749
:103A80004FEA4102B2F1E04324BFB3F5001CDCF180
:103A9000FE5C0DD901F0004C4FEAC0024CEA5070B8
:103AA000B2F1004F40EB830008BF20F001007047E7
:103AB00011F0804F21D113F13872BCBF01F00040EA
:103AC000704741F480114FEA5252C2F11802C2F11C
:103AD000200C10FA0CF320FA02F018BF40F001009D
:103AE0004FEAC1234FEAD32303FA0CFC40EA0C004F
:103AF00023FA02F34FEA4303CCE77FEA625307D18C
:103B000050EA01331EBF4FF0FE4040F440007047C2
:103B100001F0004040F0FE4040F40000704700BF5C
:103B200008B5074B044613B10021AFF30080054BE5
:103B30001868836A03B19847204603F0D7FD00BF99
:103B400000000000007B000070B50D4E0D4CA41B62
:103B5000A4100025A54209D10B4E0C4C03F0AEFE7B
:103B6000A41BA4100025A54205D170BD56F8253030
:103B700098470135EEE756F8253098470135F2E7CA
:103B8000F8010020F8010020F8010020FC010020CD
:103B900010B5431E0A44914200D110BD11F8014BEB
:103BA00003F8014FF7E702440346934200D1704700
:103BB00003F8011BF9E72DE9F04788B0002B149FAB
:103BC000109EDDE9121A1D4627F02007BBBF03F146
:103BD00000431D4600232D231446B8BF1446462F2C
:103BE0000B7004D0452F00D10136022300E00323DF
:103BF00007AA049206AACDE902A2CDE90036224620
:103C00002B4601F089FD472F804602D1119BDB072F
:103C100026D5462F08EB060911D198F80030302B35
:103C20000AD1002200232046294603F0B7FD18B927
:103C3000C6F10106CAF80060DAF8003099440022A3
:103C400000232046294603F0A9FD38B93022079BFE
:103C50004B4505D2591C07911A70F8E7CDF81C9016
:103C6000079B159AA3EB08034046136008B0BDE814
:103C7000F087F7B500290446BABF49422D232B230C
:103C8000092904F8022B437020DD0DF107031F46BC
:103C90000A2691FBF6F506FB15113031092D03F8C4
:103CA000011C03F1FF32294609DC3031023B02F8E6
:103CB000011CBB42224604D3101A03B0F0BD1346C8
:103CC000E7E713F8012B04F8012BF2E7302319443E
:103CD0008370021DC170EFE72DE9F04F91B00C46E3
:103CE000DDF8688016461F46054602F0FFFD0368B2
:103CF0000893184600F0C8FD00230E93D8F8003052
:103D00000990073323F0070303F1080294F818A081
:103D1000D4F800B0C8F80020D3E90023C4E9122386
:103D2000D4E9128929F000430B93CDF828804FF095
:103D3000FF32A94BDDE90A0103F062FD70BB4FF0D1
:103D4000FF32A54BDDE90A0103F03CFD30BB002248
:103D500000234046494603F02BFD10B12D2384F883
:103D600043309E4A9E4BBAF1470F8CBF904698460F
:103D7000032323612BF0040323604FF00009009715
:103D800033460FAA2146284600F0ECF9013040F0F6
:103D900090804FF0FF3011B0BDE8F08F42464B46A7
:103DA0004046494603F02CFD10B18E4A8E4BDAE7AF
:103DB0006368591C4BF480620EA90DA840D10623FC
:103DC00063600DF13303CDE901234FF0000C63680C
:103DD0002260CDE9030A009342464B46CDE9051C1B
:103DE0002846FFF7E8FE0AF0DF03472B804609D19B
:103DF0000D9BD81C02DB6268934247DDAAF1020AE0
:103E00005FFA8AFABAF1650F0D9924D80139524642
:103E100004F150000D91FFF72CFF0E9A1318012AA0
:103E20008146236102DC2268D10701D50133236179
:103E30009DF83330002BA2D02D2384F843309EE729
:103E4000BAF1670F00F07881BAF1470FB9D1002BB2
:103E5000B7D10123B4E7BAF1660F19D1002963681D
:103E60000CDD216113B92268D20702D501330B445E
:103E700023610D9BA3654FF00009D9E713B92268B0
:103E8000D00701D50233F3E70123F1E74FF0670ACA
:103E9000DDE90D32934205DB22682361D107E8D5C5
:103EA0000133E5E7002BD4BFC3F102030123134420
:103EB000DEE723685A0507D423694246314628467F
:103EC000B84701302BD164E7BAF1650F40F2DD80CD
:103ED00000220023D4E9120103F060FC002833D053
:103EE0000123424A31462846B84701303FF451AFDA
:103EF000DDE90D239A4202DB2368D8070FD5DDE9FF
:103F0000082331462846B84701303FF442AF4FF00E
:103F1000000804F11A090E9B013B434509DC2368A4
:103F20009B0700F10481E0680F9B9842B8BF1846D8
:103F300031E701234A4631462846B84701303FF46D
:103F400028AF08F10108E6E70D9B002B2BDC0123CD
:103F5000264A31462846B84701303FF41AAF0D9B38
:103F600023B90E9B13B92368D907D8D5DDE90823F7
:103F700031462846B84701303FF40BAF4FF00009F7
:103F800004F11A0A0D9B5B424B4501DC0E9B94E742
:103F90000123524631462846B84701303FF4F9AE76
:103FA00009F10109EEE70E9AA36D9A42A8BF1A46DD
:103FB000002A914607DD1346314642462846B84757
:103FC00001303FF4E6AE04F11A034FF0000B29EA8A
:103FD000E9790A9316E000BFFFFFEF7F087B00003E
:103FE000047B0000107B00000C7B0000147B0000B1
:103FF00001230A9A31462846B84701303FF4C9AE3A
:104000000BF1010BD4F858A0AAEB09035B45EFDCD8
:10401000DDE90D239A42D04415DB2368DA0712D478
:104020000E9B0D99A3EB0A02A3EB010A9245A8BFD0
:104030009246BAF1000F0EDC4FF000082AEAEA7A45
:1040400004F11A0919E0DDE9082331462846B8478A
:104050000130E5D19DE65346424631462846B847F1
:104060000130E9D195E601234A4631462846B84752
:1040700001303FF48EAE08F10108DDE90D239B1AF3
:10408000A3EB0A034345EEDC49E70E9A012A01DC63
:10409000DB073AD50123424631462846B84701306E
:1040A0003FF477AEDDE9082331462846B8470130B2
:1040B00008F101083FF46DAE0E9B002203F1FF3AB8
:1040C000D4E91201002303F069FBC8B95346424604
:1040D00031462846B84701300ED15AE601235246F0
:1040E00031462846B84701303FF453AE08F1010885
:1040F0000E9B013B4345F1DC4B4604F15002DDE6EB
:104100004FF0000804F11A0AF2E70123DFE7012368
:104110004A4631462846B84701303FF43AAE08F1E6
:104120000108E3680F9A9B1A4345F0DCFBE64FF069
:10413000000804F11909F4E7002B3FF48AAE4FF0B0
:10414000000CCDE9051C0DF133012260CDE9030A15
:10415000CDE90121009342464B462846FFF72BFD4F
:10416000804645E62DE9F04791461F468A680B696F
:10417000DDF820809342B8BF1346C9F8003091F8AB
:10418000432006460C4612B10133C9F800302368BB
:10419000990642BFD9F800300233C9F800302568CB
:1041A00015F0060507D104F1190AE368D9F80020D3
:1041B0009B1AAB4228DC94F843302268003318BFC6
:1041C000012392062DD404F1430239463046C047FC
:1041D000013020D02368E568D9F8002003F00603F9
:1041E000042B08BFAD1AA36822690CBF25EAE57548
:1041F00000259342C4BF9B1AED184FF000091A34F2
:104200004D451AD1002008E0012352463946304678
:10421000C047013003D14FF0FF30BDE8F0870135D2
:10422000C3E7E1185A1C302081F84300224494F877
:10423000451082F843100233C5E701232246394670
:104240003046C0470130E6D009F10109D8E7000047
:104250002DE9F04301F1430C0C46097E85B06E292F
:104260001746064698460C9A00F0B38022D8632978
:1042700036D00AD8002900F0B980582900F0838090
:1042800004F1420584F8421032E0642901D0692922
:10429000F6D120681368050603F104012AD51B68CE
:1042A0001160002B03DA2D225B4284F843206F4813
:1042B0000A2239E0732900F09D8008D86F2920D0A8
:1042C0007029DDD1236843F02003236003E07529C2
:1042D00017D07829D4D1782384F84530644855E044
:1042E0001368191D1B68116004F1420584F84230FF
:1042F00001238CE01B68116010F0400F18BF1BB247
:10430000CFE713682568181D1060280601D51B68C3
:1043100002E06806FBD51B8854486F2914BF0A22A7
:104320000822002184F843106568A560002DC0F2C2
:104330009580216821F004012160002B3DD1002DE2
:1043400040F08E806546082A0BD12368DB0708D52C
:10435000236962689A42DEBF302305F8013C05F10B
:10436000FF35ACEB05032361CDF800803B4603AA83
:1043700021463046FFF7F6FE01304DD14FF0FF30B9
:1043800005B0BDE8F083394884F84510136821680A
:104390001D1D1B6815600A060BD5CA0744BF41F0F6
:1043A000200121601BB9226822F020022260102225
:1043B000B7E74D0648BF9BB2EFE76546B3FBF2F1A6
:1043C00002FB1133C35C05F8013D0B460029F5D112
:1043D000B9E7136825686169181D106028061B6815
:1043E00001D5196002E06A06FBD51980002323611C
:1043F0006546B9E71368191D11601D6862680021E0
:10440000284602F09DFA08B1401B60606368236192
:10441000002384F84330A7E723692A46394630460B
:10442000C0470130AAD023689B0713D4E068039BE0
:104430009842B8BF1846A3E701234A46394630469A
:10444000C04701309AD00135E368039A9B1AAB420A
:10445000F2DCEBE7002504F11909F5E7002BACD1FC
:10446000037884F8423004F142056CE7167B0000C3
:10447000277B00002DE9F04F9A468B6816465A1E9E
:10448000B2F5AE7F87B083BF6FF4AE729B18019315
:10449000002386BF40F25D138B6001930B68884652
:1044A0004FF0000B43F4F06348F81C3BCDE903BB2D
:1044B00007460C4645465A46D946CDF808B0A1688D
:1044C00081B133681B78492B71D04DD8392B40D836
:1044D000312B80F088802D2B00F0908015D82B2B6D
:1044E00000F08C80B9F1000F03D0236823F48073AF
:1044F0002360013A012A00F2EA80454500F2DC809F
:104500000126304607B0BDE8F08F2E2B00F09F80CB
:10451000302BE7D1206810F4807F64D0019B20F01D
:104520008000206009F101091BB1013B01310193B9
:10453000A160A368013BA360236901332361736811
:10454000013B002B736040F3AC8033680133336070
:10455000B5E7452B00F08580462B6AD0412BC1D1B1
:10456000012ABFD1022246E0652B7AD018D8542BFD
:1045700066D011D84E2BB5D1002A46D1B9F1000F23
:1045800045D1216801F4E060B0F5E06F3FD121F43E
:10459000F061216001222EE0592B1ED0612BDEE755
:1045A0006E2BE9D015D8662B43D0692B9AD1BBF17D
:1045B000000F38D1B9F1000F97D1216801F4E06004
:1045C000B0F5E06F95D121F4F06121604FF0010B5F
:1045D00011E0742B34D0792B84D1BBF1070F81D13A
:1045E0004FF0080B07E012EB0B0F7FF47BAF216855
:1045F00021F4C07121602B7001359AE7216808060B
:104600007FF570AF21F08001F4E7022A47D0BBF1BB
:10461000010F03D0BBF1040F7FF464AF0BF1010B6A
:104620005FFA8BFBE7E7BBF1030FF7D0BBF1050F98
:10463000F2E7BBF1020F7FF455AF4FF0030BDAE75F
:10464000BBF1060F7FF44EAF4FF0070BD3E72168A5
:1046500088057FF547AF21F420712160CDF80890DF
:10466000C9E7216801F4A060B0F5806F06D0480565
:104670007FF538AFB9F1000F3FF43BAF880558BF65
:10468000029821F4F06158BFA9EB000041F4C07119
:1046900058BFCDE9030521604FF00009ABE70322C5
:1046A000A9E7D4F880310592314638469847059AF3
:1046B00000283FF404AF15E7D4F87C3115F8011D4C
:1046C0003246384698472369013B236115E70BF1D1
:1046D000FF33062B0AD8BBF1020F67D9ABF1030BEE
:1046E0005FFA8BFBA5EB0B0B5D454AD12368DA051E
:1046F0001FD55B0567D415F8011C2369652903F1F3
:10470000FF3305F1FF3B23610DD045290BD0D4F8D1
:104710007C31324638469847236915F8021C013B24
:10472000A5F1020B2361D4F87C3132463846984714
:104730005D46266816F0100676D12E70236803F4C5
:10474000C063B3F5806F41D1029BA9EB03035A42CA
:10475000002B48D141460022384600F0B1FE2568C2
:10476000DAF8003015F0020F8046894646D01A1D4F
:10477000CAF800201B68C3E90089E3680133E360DD
:10478000BFE6D4F87C3115F8011D3246384698470B
:104790002369013B2361A7E7D4F87C3115F8011D9B
:1047A0003246384698472369013B23614545F3D893
:1047B000A6E6D4F87C3115F8011D324638469847F4
:1047C0002369013B23614545F3D899E6039B002B00
:1047D000C0D004990A2332460131384600F0FCFE6D
:1047E000039B049DC21A04F26F139D4228BF04F577
:1047F000B7750E49284600F01FF8ABE71F1D15F0EE
:104800000405CAF80070B5D11F6802460B4602F0D5
:10481000F7FF20B1284600F00BF83860ADE74046BE
:104820004946FFF72DF9F8E700266AE6387B0000D5
:10483000004870470000C07F0EB400B59CB01DABAF
:10484000029006906FF000410948079104910949D0
:1048500053F8042B05910068019302A902F0CAFDE8
:10486000029B00221A701CB05DF804EB03B0704785
:10487000140000200802FFFF034611F8012B03F883
:10488000012B002AF9D17047034613F8012B002AA7
:10489000FBD1181A013870472DE9F0410F469046B8
:1048A00002F06AFB04460D46B8F1000F11D0C7F3C1
:1048B0000A53C3F16B03002B0BDD1B0503F17F557E
:1048C000002405F5401522462B46FEF7C7FE044698
:1048D0000D4620462946BDE8F0810000000000009A
:1048E0002DE9F04FA1B01F460490002338460E4634
:1048F00017921C9301F0F7FF80460068FFF7C4FF92
:104900004FF0000904464FF0000A1B961B9B1A78D3
:104910000D2A30D8092A34D2002A3CD000230E9325
:104920001B9D2B78302B40F0AA806B78582B01D040
:10493000782B65D10E9B01931CAB009302971DABA6
:10494000874A04981BA901F0F4FC10F007040646FE
:1049500005D0062C29D1013500231B950E93179BFA
:10496000002B40F094850E9BD3B148460AF10041DC
:1049700021B0BDE8F08F2B2A15D02D2A04D0202A93
:10498000CCD101331B93C1E701220E925A1C1B921A
:104990005B78002BC4D1179B1B96002B40F07585CC
:1049A00048465146E4E70022EFE71C9A3AB1352128
:1049B0001EA802F0D4FB1C99049802F045F8013CB3
:1049C000042C06D8DFE804F00A0314170A00DDE916
:1049D0001E9A3107C3D54AF0004AC0E7DDE91E93AD
:1049E0001D9A23F4801302F2334243EA025AF0E79D
:1049F000DFF870A1EDE76FF0004A4FF0FF39E8E70C
:104A00001B9B5A1C1B925B78302BF9D0002BA6D035
:104A10000123002507931B9B0C930695AB460A22A6
:104A20001B980778A7F13003D9B2092929D9224662
:104A3000D8F8001002F0E4FD002832D000203B46F8
:104A40005C4602460590652B01D0452B14D124B954
:104A500010B9079B002B9ED000241B9E731C1B9338
:104A600073782B2B79D02D2B71D04FF0000CA3F144
:104A70003007092F7CD91B964FF0000E9AE00023D7
:104A8000C7E7BBF1080FD8BF069900F10100DABFF4
:104A900002FB0133069302FB05350BF1010B1B9062
:104AA000BEE71B9B1A191B921B5DBBF1000F37D091
:104AB00002465C46A3F13001092913D90121059171
:104AC000C1E71B9B5A1C1B925B780130302BF8D03E
:104AD000A3F13102082A00F2DF841B9A0C920246ED
:104AE00000200446B3F1300E00F1010112D00A4457
:104AF00000EB040C21460A278C4513D12118082904
:104B000004F10104044419DC069B0A2101FB03E3C0
:104B1000069300211B9B581C1B905B780846C9E735
:104B20005846D3E7082901F1010103DC069B7B43CA
:104B30000693E1E71029D8BF7D43DDE7102CDCBFE9
:104B40000A2101FB05E5E4E70123059380E74FF027
:104B5000010CB31C1B93B37889E74FF0000CF8E706
:104B6000407B00000000F07F1B9B5F1C1B975B7865
:104B7000302BF9D0A3F13107082F3FF67DAFA3F119
:104B8000300E1B9B08931B9B5F1C1B975B78A3F14C
:104B90003008B8F1090F37D908997F1A082F44F661
:104BA0001F6737DCBE45A8BFBE46BCF1000F01D071
:104BB000CEF1000E002C51D100287FF4D0AE079A20
:104BC000002A7FF4CCAE059A002A7FF4E4AE4E2B87
:104BD00027D021DC492B7FF4DEAE9F491BA801F0D2
:104BE000DBFD00283FF4D7AE1B9B9C49013B1BA873
:104BF0001B9301F0D1FD10B91B9B01331B93DFF810
:104C000070A24FF00009AAE60A2101FB0E3EAEF1A8
:104C1000300EB8E7BE46C8E7692BDED06E2B7FF4B6
:104C2000BAAE8F491BA801F0B7FD00283FF4B3AE20
:104C30001B9B1B78282B0ED11EAA8A491BA801F0AA
:104C4000BFFD052807D11F9BDDF8789043F0FF4A90
:104C50004AF4E00A83E6DFF820A2D2E7AEEB0203D3
:104C6000BBF1000F08BFA34606980793102CA0467F
:104C7000A8BF4FF01008FEF777FC092C81468A4642
:104C800013DC079B002B3FF46AAE079B7ADD162BE3
:104C900061DC754A02EBC30EDEE900014A46534669
:104CA000FEF7DCFC81468A4659E66F4B03EBC803EE
:104CB00053E91223FEF7D2FC064628460F46FEF7BC
:104CC00053FC02460B4630463946FEF711FB0F2CCB
:104CD00081468A46D5DD079BA4EB08089844B8F1C5
:104CE000000F40F3968018F00F030AD05E4901EBE5
:104CF000C3014A465346D1E90001FEF7AFFC8146A5
:104D00008A4638F00F0873D0B8F59A7F47DD002443
:104D1000A3460C940694049ADFF854A1222313604E
:104D20004FF000090C9B002B3FF419AE1C9904981E
:104D300001F08AFE0699049801F086FE594604980F
:104D400001F082FE0C99049801F07EFE2146049841
:104D500001F07AFE03E6079AC4F125039342BADB19
:104D6000414DC4F10F0405EBC4014A465346D1E955
:104D70000001FEF773FC079B1C1B05EBC405D5E97E
:104D800000238DE713F1160FA5DB374AA2EBC30210
:104D9000D2E9002348465146FEF78AFD82E7002308
:104DA000324E4FEA2818484651461D46B8F1010FC9
:104DB00021DC0BB181468A462C4BAAF1547A03EBD5
:104DC000C5054A465346D5E90001FEF747FC284B86
:104DD0000A460B4027498B42814698D8A1F580119D
:104DE0008B4286BFDFF894A04FF0FF3902F1547A6E
:104DF0000023059376E018F0010F06D006EBC503FB
:104E0000D3E90023FEF72AFC012301354FEA6808A5
:104E1000CCE7EDD0C8F1000818F00F020AD0124B11
:104E200003EBC20348465146D3E90023FEF740FD99
:104E300081468A465FEA2818DAD0B8F11F0F1FDDD5
:104E40000024A3460C940694049A22234FF00009F0
:104E50004FF0000A136065E7097B0000937B0000B8
:104E6000117B0000547B0000D07B0000A87B000079
:104E70000000F07F0000A07C0000F8FFFFFFEF7F44
:104E800018F0100318BF6A23A14D059348465146F8
:104E90000023B8F1000F00F30E810BB181468A4662
:104EA000059BBBB1CAF30A53C3F16B03002B5146F8
:104EB00010DD1F2B40F30B81342BDEBF203B4FF066
:104EC000FF3202FA03F34FF00009CCBF4FF05C7AD7
:104ED00003EA010A002200234846514602F05EFC24
:104EE0000028ADD1069B00935A4623460C9904989E
:104EF00001F0FCFD0C9000283FF409AF079A079BD6
:104F0000002AC3F10003A8BF00230F93002422EA64
:104F1000E2731693A3460C9B0498596801F060FD58
:104F2000069000283FF4F7AE0C9B1A69023203F199
:104F30000C0192000C30FEF72BFE1EAB01931DAB53
:104F400000934A4653460498CDE9089A02F08AF83D
:104F50001C9000283FF4DFAE0121049801F052FEBE
:104F6000834600283FF4D7AE1D9D1E9A002DABBF8F
:104F70000F9B169B169E0F9FACBFEF185E1B059BE9
:104F8000ED1A1544634B013D9D42C2F1360280F299
:104F9000B0805B1B1F2BA2EB03024FF0010100F35B
:104FA0009D8001FA03F30A93002507EB0208059B95
:104FB000474516441E443B46A8BF4346B342A8BFDC
:104FC0003346002BC2BFA8EB0308F61AFF1A0F9B4B
:104FD000BBB159461A46049801F0B4FE8346002836
:104FE0003FF499AE01461C9A049801F014FE0D900E
:104FF00000283FF490AE1C99049801F025FD0D9B0C
:105000001C93B8F1000F78DC079B002B08DD169A83
:105010000699049801F096FE069000283FF47BAEB6
:10502000002E08DD32460699049801F0D9FE06905C
:1050300000283FF470AE002F08DD59463A46049828
:1050400001F0CEFE834600283FF465AE069A1C9917
:10505000049801F033FF044600283FF45CAEC368B7
:105060000D930023C360594601F00EFF002853DA68
:105070000D9BE3B9B9F1000F19D1CAF31303B3B90A
:105080002AF000431B0D1B05B3F1D66F0FD96369DE
:1050900013B92369012B0ADD21460122049801F08E
:1050A0009FFE5946044601F0EFFE002867DC059B91
:1050B000002B71D13AE618F0010F04D0D5E9002396
:1050C000FEF7CCFA01234FEA68080835E1E64FF015
:1050D000FF3202FA03F303EA0909FBE6C5F17F4553
:1050E00005F57F0505F57B45E23501FA05F50A91E1
:1050F0005BE7012300250A9357E742461C99049871
:1051000001F06EFE1C9000287FF47EAF03E600BF26
:10511000687B000002FCFFFFD04640F088800D9ABB
:10512000CAF313033AB3AE4A934255D1059B48469E
:10513000E3B1AC4A0AEA0202B2F1D46F4FF0FF3198
:1051400017D8120DC2F16B0301FA03F3984243D151
:10515000A54B984502D101303FF4DDADA14B08EAE3
:10516000030303F5801A4FF00009A0E74FF0FF3367
:10517000ECE70B46EAE77BBBB9F1000F2CD10599B0
:10518000984A5346F1B102EA0A01B1F1D66F19DC2F
:10519000B1F15C7F7FF758AE944A0023CDE9143219
:1051A00048465146DDE91423FEF758FA81468A46FF
:1051B00000297FF4BBAD00287FF4B8AD049A222308
:1051C0001360B3E51340A3F580136FEA135A6FEA37
:1051D0000A5A4FF0FF396AE79DB115EA080F3FF40C
:1051E00066AF0D9B059A4846514673B1FFF754FBD5
:1051F00002460B46DDE90801FEF77AF881468A4649
:1052000055E70A9B13EA090FE9E7FFF745FB02465A
:105210000B46DDE90801FEF769F80022002381460C
:105220008A4602F0BBFA00287FF40EAE3FE75946EB
:10523000204601F066FF00224FF0804306460F46ED
:1052400002F0C0FA002874D00D9B002B46D0684BAA
:105250000022CDE90A23664F0026624D654B08EA1D
:1052600005059D4240F0CE80DDE90823A8F1547A7F
:10527000C84640465146CDE9142301F07DFE024662
:105280000B46DDE90A01FEF7E9F942465346FEF70F
:105290002FF80B465349584A1940914281465CD930
:1052A000099B02F15472934203D1089B01333FF4EE
:1052B00032ADDFF834A14FF0FF391C99049801F0AA
:1052C000C3FB0699049801F0BFFB5946049801F00E
:1052D000BBFB2146049801F0B7FB1CE6B9F1000FB7
:1052E0001AD1CAF31303F3B90022414B30463946B1
:1052F00002F05EFAD0B93046394600223F4BFEF745
:10530000ADF906460F4607F1004318961993DDE9FB
:105310001823CDE90A23A0E7B9F1010F03D1BAF1AF
:10532000000F3FF491AD0022354B92E70026334F3A
:10533000E9E7324B304639460022FEF78FF90D9BE4
:1053400006460F4633B901F1004310901193DDE991
:105350001023DEE7CDE91067F9E703F1547A059BE6
:10536000002BAAD12AF000431B0D1B059D42CDF84E
:1053700020A0A2D13946304602F058FAFEF704F9CF
:105380000B46024639463046FDF7B0FF0D9B0746F7
:1053900088463BB9B9F1000F04D1089BC3F313064B
:1053A000002E6CD00AA3D3E900233846414602F010
:1053B000FFF900287FF4BAAC07A3D3E900233846ED
:1053C000414602F013FA00283FF477AFAEE400BF85
:1053D0009535A094FFFFDF3F35E5AF350000E03F96
:1053E000FFFF0F000000F07FFFFFEF7F000050394C
:1053F0000000F03F0000E07FFFFF9F7C0000E03FE7
:105400000000F0BF059B23B3B5F1D46F21D828A3CA
:10541000D3E900233046394602F0D4F9A0B1394629
:10542000304602F02BFA002808BF0120FEF79CF856
:105430000D9B06460F46FBB901F1004312901393F2
:10544000DDE91223CDE90A230B9B03F1D6635B1B35
:105450000B93DDE90801DDE90A8901F08DFD0246C3
:105460000B4640464946FEF7F9F8DDE90823FDF70B
:105470003FFF81468A4672E7CDE91267E0E70EA357
:10548000D3E9002302F094F99DE700230E93179AC5
:105490001B9B1360FFF767BA652B4FF000023FF4C8
:1054A00053AB012114460591FFF7CFBAAFF300804B
:1054B0000000C0FFFFFFDF419535A094FFFFCF3F05
:1054C000054B1B6810B41B6A044C002B08BF234615
:1054D0005DF8044BFFF704BA1400002078000020A8
:1054E0002DE9F0478046894692461E460F463D46C6
:1054F000089815F8014B01F0F3F92044437813F0B4
:10550000080332D12D2C32D17C78BD1C0122002E13
:105510005DD0102E09D1302C07D12B7803F0DF039A
:10552000582B4FD16C7810260235002A14BF4FF04B
:1055300000416FF000410027B1FBF6FC384606FB46
:105540001C1EA4F13003092B17D81C46A64223DDEC
:105550007B1C07D084451CD301D1A64519DB00FB79
:105560000640012715F8014BEBE72F46BFE72B2C30
:1055700004BFBD1C7C781A46C9E7A4F14103192B6E
:1055800001D8373CE2E7A4F16103192B04D8573C5A
:10559000DCE74FF0FF37E5E77B1C08D12223C8F892
:1055A00000300846BAF1000F07D1BDE8F08702B11C
:1055B0004042BAF1000FF8D00FB105F1FF39CAF837
:1055C0000090F2E73024002EAFD10826ADE7302C52
:1055D000A3D00A26A9E7000037B5064C064D24687B
:1055E000246A002C08BF2C460094FFF779FF03B013
:1055F00030BD00BF14000020780000202DE9F74FD7
:1056000003690C69A3428046C0F28280013C01F12B
:1056100014074FEA840C00F1140657F8245056F88A
:10562000240006EB0C03013507EB0C090193B0FBDA
:10563000F5F595B34FF0000A3846B646D34650F814
:10564000042B93B205FB03A34FEA134A9BB2ABEBC7
:105650000303120CDEF800B005FB02A213FA8BF371
:105660004FEA124A1FFA82FBDEF80020CBEB12420F
:1056700002EB23429BB243EA024381454FEA224BAD
:105680004EF8043BDBD256F80C3033B9019B043B97
:105690009E421A4630D3C8F81040404601F0F4FB51
:1056A000002825DB013530464FF0000C57F8042B5D
:1056B000D0F800E093B2ACEB0303120C13FA8EF3B4
:1056C000C2EB1E4202EB23429BB243EA0243B945BE
:1056D0004FEA224C40F8043BE8D256F8242006EB6F
:1056E00084032AB9043B9E421A460BD3C8F81040E3
:1056F000284603B0BDE8F08F1268043B002ACAD1E7
:10570000013CC5E71268043B002AEFD1013CEAE7FF
:105710000020EEE7000000002DE9F04F456A97B049
:1057200016461F460446DDF88C80CDE902673DB978
:10573000102001F0E9F86062C0E901550560C5601C
:10574000636A196851B15A684A60012393408B60BB
:10575000204601F079F9636A00221A603B1EBBBF44
:1057600023F00043039300230122ACBFC8F80030AC
:10577000C8F80020B24BDDF80C8033EA08031BD1D7
:10578000229A42F20F731360029B23B9C8F31300ED
:10579000002800F04F85249B53B9AA4B21E0AA4B67
:1057A00005930833249A1360059817B0BDE8F08F6D
:1057B000A44B05930333F5E7DDE9026700220023DC
:1057C0003046394601F0EAFF824660B1229A012351
:1057D0001360249B002B00F02A859C4B249A1360B5
:1057E000013B0593E0E714AB019315AB0093324600
:1057F0003B46204601F036FCC8F30A558346002D8F
:105800007CD0C7F3130343F07F59B04649F44019E5
:10581000A5F2FF35CDF84CA000228D4B40464946FD
:10582000FDF764FD80A3D3E90023FDF717FF80A3F4
:10583000D3E90023FDF75CFD064628460F46FDF739
:10584000A3FE7DA3D3E90023FDF708FF02460B4624
:1058500030463946FDF74CFD06460F4601F0E6FF9F
:105860000022824600233046394601F0A1FF48B1AC
:105870005046FDF789FE32463B4601F08FFF08B9DE
:105880000AF1FF3ABAF1160F59D8724901EBCA0171
:10589000DDE90223D1E9000101F0A8FF002850D082
:1058A0000AF1FF3A00231293149B5D1BB5F1010826
:1058B00049BFC5F10103002308934FF0000858BF0A
:1058C0000893BAF1000F3EDB0023D044CDF834A09A
:1058D0000993209B092B00F29080052BC4BF043B49
:1058E0002093209BA3F10203CCBF00250125032BAD
:1058F00000F28F80DFE803F07D7F3171DDE9145322
:105900001D4405F23240202813DDC0F14000029B07
:1059100008FA00F805F2124023FA00F048EA000005
:10592000FDF722FE01238046A1F1F879013D139392
:1059300072E7029BC0F1200003FA00F0F0E70123B8
:10594000B1E71290B0E7089BA3EB0A030893CAF1F2
:105950000003099300230D93BBE701230C93219BC4
:10596000002B59DD06939946666A00227260042274
:1059700002F114009842716870D9204601F030F8A5
:10598000636A30601B680593B9F10E0F00F2EB807B
:10599000002D00F0E8809DED027BBAF1000F8DED47
:1059A000107B79DD2B4A0AF00F0302EBC30393ED62
:1059B000007B4FEA2A16F0068DED0A7B6AD5264B4E
:1059C000DDE91001D3E90823FDF772FFCDE90201FB
:1059D00006F00F060325204F51E001230C93219B75
:1059E000534403F1010906934B46012BB8BF012331
:1059F000BAE70023B2E70023F0E701250023209354
:105A00000C954FF0FF330693994600221223219202
:105A1000AAE701230C93F4E70123069399461A465B
:105A2000F5E700BFAFF3008061436F63A787D23F04
:105A3000B3C8608B288AC63FFB799F501344D33F7D
:105A40000000F07F997B0000907B0000157B000038
:105A50000000F83FD07B0000A87B0000013171609E
:105A6000520085E7F10708D5DDE90A01D7E90023EF
:105A7000FDF7F4FDCDE90A01013576100837002E57
:105A8000F0D1DDE90A23DDE90201FDF711FFCDE9DF
:105A900002011AE002259EE700F0A080CAF100068C
:105AA0009F4BA04F06F00F0203EBC203D3E9002384
:105AB000DDE91001FDF7D2FDCDE902013611002329
:105AC0000225002E7FD1002BE1D1129B002B00F08C
:105AD0008780DDE902670022934B3046394601F0AA
